{
  "contractName": "ContinuousSale",
  "abi": [
    {
      "constant": true,
      "inputs": [],
      "name": "BUCKET_SIZE",
      "outputs": [
        {
          "name": "",
          "type": "uint256"
        }
      ],
      "payable": false,
      "type": "function"
    },
    {
      "constant": true,
      "inputs": [],
      "name": "lastBucket",
      "outputs": [
        {
          "name": "",
          "type": "uint256"
        }
      ],
      "payable": false,
      "type": "function"
    },
    {
      "constant": true,
      "inputs": [],
      "name": "rate",
      "outputs": [
        {
          "name": "",
          "type": "uint256"
        }
      ],
      "payable": false,
      "type": "function"
    },
    {
      "constant": true,
      "inputs": [],
      "name": "weiRaised",
      "outputs": [
        {
          "name": "",
          "type": "uint256"
        }
      ],
      "payable": false,
      "type": "function"
    },
    {
      "constant": true,
      "inputs": [],
      "name": "wallet",
      "outputs": [
        {
          "name": "",
          "type": "address"
        }
      ],
      "payable": false,
      "type": "function"
    },
    {
      "constant": true,
      "inputs": [],
      "name": "issuance",
      "outputs": [
        {
          "name": "",
          "type": "uint256"
        }
      ],
      "payable": false,
      "type": "function"
    },
    {
      "constant": true,
      "inputs": [],
      "name": "bucketAmount",
      "outputs": [
        {
          "name": "",
          "type": "uint256"
        }
      ],
      "payable": false,
      "type": "function"
    },
    {
      "constant": false,
      "inputs": [
        {
          "name": "beneficiary",
          "type": "address"
        }
      ],
      "name": "buyTokens",
      "outputs": [],
      "payable": true,
      "type": "function"
    },
    {
      "constant": true,
      "inputs": [],
      "name": "token",
      "outputs": [
        {
          "name": "",
          "type": "address"
        }
      ],
      "payable": false,
      "type": "function"
    },
    {
      "inputs": [
        {
          "name": "_rate",
          "type": "uint256"
        },
        {
          "name": "_wallet",
          "type": "address"
        },
        {
          "name": "_token",
          "type": "address"
        }
      ],
      "payable": false,
      "type": "constructor"
    },
    {
      "payable": true,
      "type": "fallback"
    },
    {
      "anonymous": false,
      "inputs": [
        {
          "indexed": true,
          "name": "investor",
          "type": "address"
        },
        {
          "indexed": true,
          "name": "beneficiary",
          "type": "address"
        },
        {
          "indexed": false,
          "name": "weiAmount",
          "type": "uint256"
        },
        {
          "indexed": false,
          "name": "tokens",
          "type": "uint256"
        }
      ],
      "name": "TokenPurchase",
      "type": "event"
    }
  ],
  "bytecode": "0x606060405260006005556000600655341561001657fe5b604051606080610737833981016040528080519060200190919080519060200190919080519060200190919050505b600083141515156100565760006000fd5b60008273ffffffffffffffffffffffffffffffffffffffff161415151561007d5760006000fd5b8260028190555081600160006101000a81548173ffffffffffffffffffffffffffffffffffffffff021916908373ffffffffffffffffffffffffffffffffffffffff16021790555080600060006101000a81548173ffffffffffffffffffffffffffffffffffffffff021916908373ffffffffffffffffffffffffffffffffffffffff1602179055505b5050505b61061d8061011a6000396000f30060606040523615610097576000357c0100000000000000000000000000000000000000000000000000000000900463ffffffff16806312c55027146100a95780632958263a146100cf5780632c4e722e146100f55780634042b66f1461011b578063521eb27314610141578063863623bb146101935780639227bed6146101b9578063ec8ac4d8146101df578063fc0c546a1461020d575b6100a75b6100a43361025f565b5b565b005b34156100b157fe5b6100b96102ba565b6040518082815260200191505060405180910390f35b34156100d757fe5b6100df6102c0565b6040518082815260200191505060405180910390f35b34156100fd57fe5b6101056102c6565b6040518082815260200191505060405180910390f35b341561012357fe5b61012b6102cc565b6040518082815260200191505060405180910390f35b341561014957fe5b6101516102d2565b604051808273ffffffffffffffffffffffffffffffffffffffff1673ffffffffffffffffffffffffffffffffffffffff16815260200191505060405180910390f35b341561019b57fe5b6101a36102f8565b6040518082815260200191505060405180910390f35b34156101c157fe5b6101c96102fe565b6040518082815260200191505060405180910390f35b61020b600480803573ffffffffffffffffffffffffffffffffffffffff1690602001909190505061025f565b005b341561021557fe5b61021d610304565b604051808273ffffffffffffffffffffffffffffffffffffffff1673ffffffffffffffffffffffffffffffffffffffff16815260200191505060405180910390f35b600060008273ffffffffffffffffffffffffffffffffffffffff16141515156102885760006000fd5b600034141515156102995760006000fd5b6102a161032a565b6102aa82610362565b90506102b581610500565b5b5050565b61a8c081565b60055481565b60025481565b60035481565b600160009054906101000a900473ffffffffffffffffffffffffffffffffffffffff1681565b60045481565b60065481565b600060009054906101000a900473ffffffffffffffffffffffffffffffffffffffff1681565b6000600042915061a8c08281151561033e57fe5b068203905060055481111561035d578060058190555060006006819055505b5b5050565b6000600060003491506103806002548361053790919063ffffffff16565b90506103978260035461056c90919063ffffffff16565b600381905550600060009054906101000a900473ffffffffffffffffffffffffffffffffffffffff1673ffffffffffffffffffffffffffffffffffffffff166340c10f1985836000604051602001526040518363ffffffff167c0100000000000000000000000000000000000000000000000000000000028152600401808373ffffffffffffffffffffffffffffffffffffffff1673ffffffffffffffffffffffffffffffffffffffff16815260200182815260200192505050602060405180830381600087803b151561046757fe5b6102c65a03f1151561047557fe5b50505060405180519050508373ffffffffffffffffffffffffffffffffffffffff163373ffffffffffffffffffffffffffffffffffffffff167f623b3804fa71d67900d064613da8f94b9617215ee90799290593e1745087ad188484604051808381526020018281526020019250505060405180910390a36104f561058c565b8092505b5050919050565b60006105178260065461056c90919063ffffffff16565b9050600454811115151561052b5760006000fd5b806006819055505b5050565b6000600082840290506000841480610559575082848281151561055657fe5b04145b151561056157fe5b8091505b5092915050565b60006000828401905083811015151561058157fe5b8091505b5092915050565b600160009054906101000a900473ffffffffffffffffffffffffffffffffffffffff1673ffffffffffffffffffffffffffffffffffffffff166108fc349081150290604051809050600060405180830381858888f1935050505015156105ee57fe5b5b5600a165627a7a7230582000bdf901a87d7c5e9a2a6709f6619dc0e03650e642c5fd143861c0d53e4de5440029",
  "source": "pragma solidity ^0.4.11;\n\nimport \"zeppelin-solidity/contracts/token/MintableToken.sol\";\n\n/**\n * @title ContinuousSale\n * @dev ContinuousSale implements a contract for managing a continuous token sale\n */\ncontract ContinuousSale {\n    using SafeMath for uint256;\n\n    // time bucket size\n    uint256 public constant BUCKET_SIZE = 12 hours;\n\n    // the token being sold\n    MintableToken public token;\n\n    // address where funds are collected\n    address public wallet;\n\n    // amount of tokens emitted per wei\n    uint256 public rate;\n\n    // amount of raised money in wei\n    uint256 public weiRaised;\n\n    // max amount of tokens to mint per time bucket\n    uint256 public issuance;\n\n    // last time bucket from which tokens have been purchased\n    uint256 public lastBucket = 0;\n\n    // amount issued in the last bucket\n    uint256 public bucketAmount = 0;\n\n    event TokenPurchase(\n        address indexed investor,\n        address indexed beneficiary,\n        uint256 weiAmount,\n        uint256 tokens\n    );\n\n    function ContinuousSale(\n        uint256 _rate,\n        address _wallet,\n        MintableToken _token\n    ) {\n        require(_rate != 0);\n        require(_wallet != 0);\n        // require(address(token) != 0x0);\n\n        rate = _rate;\n        wallet = _wallet;\n        token = _token;\n    }\n\n    function() payable {\n        buyTokens(msg.sender);\n    }\n\n    function buyTokens(address beneficiary) public payable {\n        require(beneficiary != 0x0);\n        require(msg.value != 0);\n\n        prepareContinuousPurchase();\n        uint256 tokens = processPurchase(beneficiary);\n        checkContinuousPurchase(tokens);\n    }\n\n    function prepareContinuousPurchase() internal {\n        uint256 timestamp = block.timestamp;\n        uint256 bucket = timestamp - (timestamp % BUCKET_SIZE);\n\n        if (bucket > lastBucket) {\n            lastBucket = bucket;\n            bucketAmount = 0;\n        }\n    }\n\n    function checkContinuousPurchase(uint256 tokens) internal {\n        uint256 updatedBucketAmount = bucketAmount.add(tokens);\n        require(updatedBucketAmount <= issuance);\n\n        bucketAmount = updatedBucketAmount;\n    }\n\n    function processPurchase(address beneficiary) internal returns (uint256) {\n        uint256 weiAmount = msg.value;\n\n        // calculate token amount to be created\n        uint256 tokens = weiAmount.mul(rate);\n\n        // update state\n        weiRaised = weiRaised.add(weiAmount);\n\n        token.mint(beneficiary, tokens);\n        TokenPurchase(msg.sender, beneficiary, weiAmount, tokens);\n\n        forwardFunds();\n\n        return tokens;\n    }\n\n    function forwardFunds() internal {\n        wallet.transfer(msg.value);\n    }\n}\n",
  "sourcePath": "/Users/ac12644/Desktop/vgr/contracts/ContinuousSale.sol",
  "compiler": {
    "name": "solc",
    "version": "0.4.11+commit.68ef5810.Emscripten.clang"
  },
  "schemaVersion": "3.4.8",
  "updatedAt": "2022-08-30T10:55:27.442Z",
  "devdoc": {
    "methods": {},
    "title": "ContinuousSale"
  },
  "userdoc": {
    "methods": {}
  }
}