{
  "contractName": "VGRCrowdsale",
  "abi": [
    {
      "constant": true,
      "inputs": [],
      "name": "endBlock",
      "outputs": [
        {
          "name": "",
          "type": "uint256"
        }
      ],
      "payable": false,
      "type": "function"
    },
    {
      "constant": false,
      "inputs": [],
      "name": "pauseToken",
      "outputs": [],
      "payable": false,
      "type": "function"
    },
    {
      "constant": true,
      "inputs": [],
      "name": "rate",
      "outputs": [
        {
          "name": "",
          "type": "uint256"
        }
      ],
      "payable": false,
      "type": "function"
    },
    {
      "constant": true,
      "inputs": [],
      "name": "cap",
      "outputs": [
        {
          "name": "",
          "type": "uint256"
        }
      ],
      "payable": false,
      "type": "function"
    },
    {
      "constant": true,
      "inputs": [],
      "name": "FOUNDATION_SHARE",
      "outputs": [
        {
          "name": "",
          "type": "uint256"
        }
      ],
      "payable": false,
      "type": "function"
    },
    {
      "constant": true,
      "inputs": [
        {
          "name": "buyer",
          "type": "address"
        }
      ],
      "name": "isWhitelisted",
      "outputs": [
        {
          "name": "",
          "type": "bool"
        }
      ],
      "payable": false,
      "type": "function"
    },
    {
      "constant": true,
      "inputs": [],
      "name": "weiRaised",
      "outputs": [
        {
          "name": "",
          "type": "uint256"
        }
      ],
      "payable": false,
      "type": "function"
    },
    {
      "constant": false,
      "inputs": [
        {
          "name": "buyer",
          "type": "address"
        },
        {
          "name": "rate",
          "type": "uint256"
        }
      ],
      "name": "setBuyerRate",
      "outputs": [],
      "payable": false,
      "type": "function"
    },
    {
      "constant": true,
      "inputs": [],
      "name": "startBlock",
      "outputs": [
        {
          "name": "",
          "type": "uint256"
        }
      ],
      "payable": false,
      "type": "function"
    },
    {
      "constant": false,
      "inputs": [],
      "name": "finalize",
      "outputs": [],
      "payable": false,
      "type": "function"
    },
    {
      "constant": false,
      "inputs": [],
      "name": "unpauseToken",
      "outputs": [],
      "payable": false,
      "type": "function"
    },
    {
      "constant": true,
      "inputs": [],
      "name": "wallet",
      "outputs": [
        {
          "name": "",
          "type": "address"
        }
      ],
      "payable": false,
      "type": "function"
    },
    {
      "constant": true,
      "inputs": [],
      "name": "preferentialRate",
      "outputs": [
        {
          "name": "",
          "type": "uint256"
        }
      ],
      "payable": false,
      "type": "function"
    },
    {
      "constant": true,
      "inputs": [],
      "name": "continuousSale",
      "outputs": [
        {
          "name": "",
          "type": "address"
        }
      ],
      "payable": false,
      "type": "function"
    },
    {
      "constant": true,
      "inputs": [
        {
          "name": "",
          "type": "address"
        }
      ],
      "name": "buyerRate",
      "outputs": [
        {
          "name": "",
          "type": "uint256"
        }
      ],
      "payable": false,
      "type": "function"
    },
    {
      "constant": true,
      "inputs": [],
      "name": "isFinalized",
      "outputs": [
        {
          "name": "",
          "type": "bool"
        }
      ],
      "payable": false,
      "type": "function"
    },
    {
      "constant": true,
      "inputs": [],
      "name": "owner",
      "outputs": [
        {
          "name": "",
          "type": "address"
        }
      ],
      "payable": false,
      "type": "function"
    },
    {
      "constant": true,
      "inputs": [
        {
          "name": "",
          "type": "address"
        }
      ],
      "name": "whitelist",
      "outputs": [
        {
          "name": "",
          "type": "bool"
        }
      ],
      "payable": false,
      "type": "function"
    },
    {
      "constant": true,
      "inputs": [],
      "name": "initialRate",
      "outputs": [
        {
          "name": "",
          "type": "uint256"
        }
      ],
      "payable": false,
      "type": "function"
    },
    {
      "constant": false,
      "inputs": [
        {
          "name": "rate",
          "type": "uint256"
        }
      ],
      "name": "setInitialRate",
      "outputs": [],
      "payable": false,
      "type": "function"
    },
    {
      "constant": true,
      "inputs": [],
      "name": "TOTAL_SHARE",
      "outputs": [
        {
          "name": "",
          "type": "uint256"
        }
      ],
      "payable": false,
      "type": "function"
    },
    {
      "constant": true,
      "inputs": [],
      "name": "endRate",
      "outputs": [
        {
          "name": "",
          "type": "uint256"
        }
      ],
      "payable": false,
      "type": "function"
    },
    {
      "constant": true,
      "inputs": [],
      "name": "CROWDSALE_SHARE",
      "outputs": [
        {
          "name": "",
          "type": "uint256"
        }
      ],
      "payable": false,
      "type": "function"
    },
    {
      "constant": false,
      "inputs": [
        {
          "name": "_wallet",
          "type": "address"
        }
      ],
      "name": "setWallet",
      "outputs": [],
      "payable": false,
      "type": "function"
    },
    {
      "constant": false,
      "inputs": [
        {
          "name": "rate",
          "type": "uint256"
        }
      ],
      "name": "setEndRate",
      "outputs": [],
      "payable": false,
      "type": "function"
    },
    {
      "constant": false,
      "inputs": [
        {
          "name": "buyer",
          "type": "address"
        }
      ],
      "name": "addToWhitelist",
      "outputs": [],
      "payable": false,
      "type": "function"
    },
    {
      "constant": false,
      "inputs": [],
      "name": "beginContinuousSale",
      "outputs": [],
      "payable": false,
      "type": "function"
    },
    {
      "constant": false,
      "inputs": [
        {
          "name": "beneficiary",
          "type": "address"
        }
      ],
      "name": "buyTokens",
      "outputs": [],
      "payable": true,
      "type": "function"
    },
    {
      "constant": true,
      "inputs": [],
      "name": "hasEnded",
      "outputs": [
        {
          "name": "",
          "type": "bool"
        }
      ],
      "payable": false,
      "type": "function"
    },
    {
      "constant": false,
      "inputs": [
        {
          "name": "newOwner",
          "type": "address"
        }
      ],
      "name": "transferOwnership",
      "outputs": [],
      "payable": false,
      "type": "function"
    },
    {
      "constant": true,
      "inputs": [],
      "name": "token",
      "outputs": [
        {
          "name": "",
          "type": "address"
        }
      ],
      "payable": false,
      "type": "function"
    },
    {
      "inputs": [
        {
          "name": "_startBlock",
          "type": "uint256"
        },
        {
          "name": "_endBlock",
          "type": "uint256"
        },
        {
          "name": "_initialRate",
          "type": "uint256"
        },
        {
          "name": "_endRate",
          "type": "uint256"
        },
        {
          "name": "_preferentialRate",
          "type": "uint256"
        },
        {
          "name": "_wallet",
          "type": "address"
        }
      ],
      "payable": false,
      "type": "constructor"
    },
    {
      "payable": true,
      "type": "fallback"
    },
    {
      "anonymous": false,
      "inputs": [
        {
          "indexed": false,
          "name": "wallet",
          "type": "address"
        }
      ],
      "name": "WalletChange",
      "type": "event"
    },
    {
      "anonymous": false,
      "inputs": [
        {
          "indexed": true,
          "name": "buyer",
          "type": "address"
        },
        {
          "indexed": false,
          "name": "rate",
          "type": "uint256"
        }
      ],
      "name": "PreferentialRateChange",
      "type": "event"
    },
    {
      "anonymous": false,
      "inputs": [
        {
          "indexed": false,
          "name": "rate",
          "type": "uint256"
        }
      ],
      "name": "InitialRateChange",
      "type": "event"
    },
    {
      "anonymous": false,
      "inputs": [
        {
          "indexed": false,
          "name": "rate",
          "type": "uint256"
        }
      ],
      "name": "EndRateChange",
      "type": "event"
    },
    {
      "anonymous": false,
      "inputs": [],
      "name": "Finalized",
      "type": "event"
    },
    {
      "anonymous": false,
      "inputs": [
        {
          "indexed": true,
          "name": "purchaser",
          "type": "address"
        },
        {
          "indexed": true,
          "name": "beneficiary",
          "type": "address"
        },
        {
          "indexed": false,
          "name": "value",
          "type": "uint256"
        },
        {
          "indexed": false,
          "name": "amount",
          "type": "uint256"
        }
      ],
      "name": "TokenPurchase",
      "type": "event"
    }
  ],
  "bytecode": "0x60606040526000600960006101000a81548160ff02191690831515021790555034156200002857fe5b60405160c08062006d28833981016040528080519060200190919080519060200190919080519060200190919080519060200190919080519060200190919080519060200190919050505b6912413c9365097c3800005b5b868686845b438410151515620000965760006000fd5b838310151515620000a75760006000fd5b600082111515620000b85760006000fd5b60008173ffffffffffffffffffffffffffffffffffffffff1614151515620000e05760006000fd5b620000fe620003516401000000000262001ceb176401000000009004565b600060006101000a81548173ffffffffffffffffffffffffffffffffffffffff021916908373ffffffffffffffffffffffffffffffffffffffff16021790555083600181905550826002819055508160048190555080600360006101000a81548173ffffffffffffffffffffffffffffffffffffffff021916908373ffffffffffffffffffffffffffffffffffffffff1602179055505b5050505033600660006101000a81548173ffffffffffffffffffffffffffffffffffffffff021916908373ffffffffffffffffffffffffffffffffffffffff1602179055505b600081111515620001ec5760006000fd5b806008819055505b50600084111515620002065760006000fd5b600083111515620002175760006000fd5b600082111515620002285760006000fd5b83600c8190555082600d8190555081600a819055506200025b6200037a6401000000000262001d14176401000000009004565b600e60006101000a81548173ffffffffffffffffffffffffffffffffffffffff021916908373ffffffffffffffffffffffffffffffffffffffff160217905550600060009054906101000a900473ffffffffffffffffffffffffffffffffffffffff1673ffffffffffffffffffffffffffffffffffffffff16638456cb596000604051602001526040518163ffffffff167c0100000000000000000000000000000000000000000000000000000000028152600401809050602060405180830381600087803b15156200032a57fe5b6102c65a03f115156200033957fe5b50505060405180519050505b5050505050506200047b565b60006200035d62000459565b809050604051809103906000f08015156200037457fe5b90505b90565b6000600454600360009054906101000a900473ffffffffffffffffffffffffffffffffffffffff16600060009054906101000a900473ffffffffffffffffffffffffffffffffffffffff16620003cf6200046a565b808481526020018373ffffffffffffffffffffffffffffffffffffffff1673ffffffffffffffffffffffffffffffffffffffff1681526020018273ffffffffffffffffffffffffffffffffffffffff1673ffffffffffffffffffffffffffffffffffffffff1681526020019350505050604051809103906000f08015156200045357fe5b90505b90565b6040516114ed80620047fa83390190565b6040516110418062005ce783390190565b61436f806200048b6000396000f30060606040523615620001a9576000357c0100000000000000000000000000000000000000000000000000000000900463ffffffff168063083c632314620001be5780632c34962714620001e75780632c4e722e14620001fc578063355274ea14620002255780633723f149146200024e5780633af32abf14620002775780634042b66f14620002c8578063467523fa14620002f157806348cd4cb114620003335780634bb278f3146200035c57806350669a031462000371578063521eb27314620003865780635fbff3e214620003db57806385bb8e2914620004045780638660b22014620004595780638d4e408314620004a65780638da5cb5b14620004d35780639b19251a14620005285780639e51051f1462000579578063abe3dfd114620005a2578063bf41e16f14620005c5578063c505ebce14620005ee578063d9719e561462000617578063deaa59df1462000640578063dfb87be11462000679578063e43252d7146200069c578063e83f682a14620006d5578063ec8ac4d814620006ea578063ecb70fb7146200071a578063f2fde38b1462000747578063fc0c546a1462000780575b620001bc5b620001b933620007d5565b5b565b005b3415620001c757fe5b620001d1620009c6565b6040518082815260200191505060405180910390f35b3415620001f057fe5b620001fa620009cc565b005b34156200020557fe5b6200020f62000af4565b6040518082815260200191505060405180910390f35b34156200022e57fe5b6200023862000afa565b6040518082815260200191505060405180910390f35b34156200025757fe5b6200026162000b00565b6040518082815260200191505060405180910390f35b34156200028057fe5b620002ae600480803573ffffffffffffffffffffffffffffffffffffffff1690602001909190505062000b05565b604051808215151515815260200191505060405180910390f35b3415620002d157fe5b620002db62000b5c565b6040518082815260200191505060405180910390f35b3415620002fa57fe5b62000331600480803573ffffffffffffffffffffffffffffffffffffffff1690602001909190803590602001909190505062000b62565b005b34156200033c57fe5b6200034662000c94565b6040518082815260200191505060405180910390f35b34156200036557fe5b6200036f62000c9a565b005b34156200037a57fe5b6200038462000d85565b005b34156200038f57fe5b6200039962000ead565b604051808273ffffffffffffffffffffffffffffffffffffffff1673ffffffffffffffffffffffffffffffffffffffff16815260200191505060405180910390f35b3415620003e457fe5b620003ee62000ed3565b6040518082815260200191505060405180910390f35b34156200040d57fe5b6200041762000ed9565b604051808273ffffffffffffffffffffffffffffffffffffffff1673ffffffffffffffffffffffffffffffffffffffff16815260200191505060405180910390f35b34156200046257fe5b62000490600480803573ffffffffffffffffffffffffffffffffffffffff1690602001909190505062000eff565b6040518082815260200191505060405180910390f35b3415620004af57fe5b620004b962000f17565b604051808215151515815260200191505060405180910390f35b3415620004dc57fe5b620004e662000f2a565b604051808273ffffffffffffffffffffffffffffffffffffffff1673ffffffffffffffffffffffffffffffffffffffff16815260200191505060405180910390f35b34156200053157fe5b6200055f600480803573ffffffffffffffffffffffffffffffffffffffff1690602001909190505062000f50565b604051808215151515815260200191505060405180910390f35b34156200058257fe5b6200058c62000f70565b6040518082815260200191505060405180910390f35b3415620005ab57fe5b620005c3600480803590602001909190505062000f76565b005b3415620005ce57fe5b620005d86200103b565b6040518082815260200191505060405180910390f35b3415620005f757fe5b6200060162001040565b6040518082815260200191505060405180910390f35b34156200062057fe5b6200062a62001046565b6040518082815260200191505060405180910390f35b34156200064957fe5b62000677600480803573ffffffffffffffffffffffffffffffffffffffff169060200190919050506200104b565b005b34156200068257fe5b6200069a600480803590602001909190505062001246565b005b3415620006a557fe5b620006d3600480803573ffffffffffffffffffffffffffffffffffffffff169060200190919050506200130b565b005b3415620006de57fe5b620006e8620013ee565b005b62000718600480803573ffffffffffffffffffffffffffffffffffffffff16906020019091905050620007d5565b005b34156200072357fe5b6200072d620016e1565b604051808215151515815260200191505060405180910390f35b34156200075057fe5b6200077e600480803573ffffffffffffffffffffffffffffffffffffffff1690602001909190505062001709565b005b34156200078957fe5b62000793620017e5565b604051808273ffffffffffffffffffffffffffffffffffffffff1673ffffffffffffffffffffffffffffffffffffffff16815260200191505060405180910390f35b600060006000600060008573ffffffffffffffffffffffffffffffffffffffff1614151515620008055760006000fd5b6200080f6200180b565b15156200081c5760006000fd5b34935062000836846005546200184890919063ffffffff16565b92506200084262001869565b91506200085982856200198090919063ffffffff16565b905082600581905550600060009054906101000a900473ffffffffffffffffffffffffffffffffffffffff1673ffffffffffffffffffffffffffffffffffffffff166340c10f1986836000604051602001526040518363ffffffff167c0100000000000000000000000000000000000000000000000000000000028152600401808373ffffffffffffffffffffffffffffffffffffffff1673ffffffffffffffffffffffffffffffffffffffff16815260200182815260200192505050602060405180830381600087803b15156200092d57fe5b6102c65a03f115156200093c57fe5b50505060405180519050508473ffffffffffffffffffffffffffffffffffffffff163373ffffffffffffffffffffffffffffffffffffffff167f623b3804fa71d67900d064613da8f94b9617215ee90799290593e1745087ad188684604051808381526020018281526020019250505060405180910390a3620009be620019b8565b5b5050505050565b60025481565b600660009054906101000a900473ffffffffffffffffffffffffffffffffffffffff1673ffffffffffffffffffffffffffffffffffffffff163373ffffffffffffffffffffffffffffffffffffffff1614151562000a2a5760006000fd5b600960009054906101000a900460ff16151562000a475760006000fd5b600060009054906101000a900473ffffffffffffffffffffffffffffffffffffffff1673ffffffffffffffffffffffffffffffffffffffff16638456cb596000604051602001526040518163ffffffff167c0100000000000000000000000000000000000000000000000000000000028152600401809050602060405180830381600087803b151562000ad657fe5b6102c65a03f1151562000ae557fe5b50505060405180519050505b5b565b60045481565b60085481565b603c81565b6000600760008373ffffffffffffffffffffffffffffffffffffffff1673ffffffffffffffffffffffffffffffffffffffff16815260200190815260200160002060009054906101000a900460ff1690505b919050565b60055481565b600660009054906101000a900473ffffffffffffffffffffffffffffffffffffffff1673ffffffffffffffffffffffffffffffffffffffff163373ffffffffffffffffffffffffffffffffffffffff1614151562000bc05760006000fd5b6000811415151562000bd25760006000fd5b62000bdd8262000b05565b151562000bea5760006000fd5b6001544310151562000bfc5760006000fd5b80600b60008473ffffffffffffffffffffffffffffffffffffffff1673ffffffffffffffffffffffffffffffffffffffff168152602001908152602001600020819055508173ffffffffffffffffffffffffffffffffffffffff167f0f3ae419c756d7584b97a00ed889018a8f499d13dcdac1c7b3a95c7ca1f37f66826040518082815260200191505060405180910390a25b5b5050565b60015481565b600660009054906101000a900473ffffffffffffffffffffffffffffffffffffffff1673ffffffffffffffffffffffffffffffffffffffff163373ffffffffffffffffffffffffffffffffffffffff1614151562000cf85760006000fd5b600960009054906101000a900460ff1615151562000d165760006000fd5b62000d20620016e1565b151562000d2d5760006000fd5b62000d3762001a1e565b7f6823b073d48d6e3a7d385eeb601452d680e74bb46afe3255a7d778f3a9b1768160405180905060405180910390a16001600960006101000a81548160ff0219169083151502179055505b5b565b600660009054906101000a900473ffffffffffffffffffffffffffffffffffffffff1673ffffffffffffffffffffffffffffffffffffffff163373ffffffffffffffffffffffffffffffffffffffff1614151562000de35760006000fd5b600960009054906101000a900460ff16151562000e005760006000fd5b600060009054906101000a900473ffffffffffffffffffffffffffffffffffffffff1673ffffffffffffffffffffffffffffffffffffffff16633f4ba83a6000604051602001526040518163ffffffff167c0100000000000000000000000000000000000000000000000000000000028152600401809050602060405180830381600087803b151562000e8f57fe5b6102c65a03f1151562000e9e57fe5b50505060405180519050505b5b565b600360009054906101000a900473ffffffffffffffffffffffffffffffffffffffff1681565b600a5481565b600e60009054906101000a900473ffffffffffffffffffffffffffffffffffffffff1681565b600b6020528060005260406000206000915090505481565b600960009054906101000a900460ff1681565b600660009054906101000a900473ffffffffffffffffffffffffffffffffffffffff1681565b60076020528060005260406000206000915054906101000a900460ff1681565b600c5481565b600660009054906101000a900473ffffffffffffffffffffffffffffffffffffffff1673ffffffffffffffffffffffffffffffffffffffff163373ffffffffffffffffffffffffffffffffffffffff1614151562000fd45760006000fd5b6000811415151562000fe65760006000fd5b6001544310151562000ff85760006000fd5b80600c819055507f3148ac6288a0872fc7c29cb5374bddb5f87f89c836031267129f165a4c4c9b3e816040518082815260200191505060405180910390a15b5b50565b606481565b600d5481565b602881565b600660009054906101000a900473ffffffffffffffffffffffffffffffffffffffff1673ffffffffffffffffffffffffffffffffffffffff163373ffffffffffffffffffffffffffffffffffffffff16141515620010a95760006000fd5b60008173ffffffffffffffffffffffffffffffffffffffff1614151515620010d15760006000fd5b80600360006101000a81548173ffffffffffffffffffffffffffffffffffffffff021916908373ffffffffffffffffffffffffffffffffffffffff160217905550600e60009054906101000a900473ffffffffffffffffffffffffffffffffffffffff1673ffffffffffffffffffffffffffffffffffffffff1663deaa59df826040518263ffffffff167c0100000000000000000000000000000000000000000000000000000000028152600401808273ffffffffffffffffffffffffffffffffffffffff1673ffffffffffffffffffffffffffffffffffffffff168152602001915050600060405180830381600087803b1515620011cc57fe5b6102c65a03f11515620011db57fe5b5050507f3787b7480773021c225875ded0c374cfd0805e3061363fbbb447366e557c77a181604051808273ffffffffffffffffffffffffffffffffffffffff1673ffffffffffffffffffffffffffffffffffffffff16815260200191505060405180910390a15b5b50565b600660009054906101000a900473ffffffffffffffffffffffffffffffffffffffff1673ffffffffffffffffffffffffffffffffffffffff163373ffffffffffffffffffffffffffffffffffffffff16141515620012a45760006000fd5b60008114151515620012b65760006000fd5b60015443101515620012c85760006000fd5b80600d819055507f34cbbef951e76a206451845af670e86419548f7a8a2fda19417ba9631fe2dc5d816040518082815260200191505060405180910390a15b5b50565b600660009054906101000a900473ffffffffffffffffffffffffffffffffffffffff1673ffffffffffffffffffffffffffffffffffffffff163373ffffffffffffffffffffffffffffffffffffffff16141515620013695760006000fd5b60008173ffffffffffffffffffffffffffffffffffffffff1614151515620013915760006000fd5b6001600760008373ffffffffffffffffffffffffffffffffffffffff1673ffffffffffffffffffffffffffffffffffffffff16815260200190815260200160002060006101000a81548160ff0219169083151502179055505b5b50565b600660009054906101000a900473ffffffffffffffffffffffffffffffffffffffff1673ffffffffffffffffffffffffffffffffffffffff163373ffffffffffffffffffffffffffffffffffffffff161415156200144c5760006000fd5b600960009054906101000a900460ff161515620014695760006000fd5b600060009054906101000a900473ffffffffffffffffffffffffffffffffffffffff1673ffffffffffffffffffffffffffffffffffffffff1663f2fde38b600e60009054906101000a900473ffffffffffffffffffffffffffffffffffffffff166040518263ffffffff167c0100000000000000000000000000000000000000000000000000000000028152600401808273ffffffffffffffffffffffffffffffffffffffff1673ffffffffffffffffffffffffffffffffffffffff168152602001915050600060405180830381600087803b15156200154557fe5b6102c65a03f115156200155457fe5b505050600e60009054906101000a900473ffffffffffffffffffffffffffffffffffffffff1673ffffffffffffffffffffffffffffffffffffffff1663be9a65556040518163ffffffff167c0100000000000000000000000000000000000000000000000000000000028152600401809050600060405180830381600087803b1515620015dd57fe5b6102c65a03f11515620015ec57fe5b505050600e60009054906101000a900473ffffffffffffffffffffffffffffffffffffffff1673ffffffffffffffffffffffffffffffffffffffff1663f2fde38b600660009054906101000a900473ffffffffffffffffffffffffffffffffffffffff166040518263ffffffff167c0100000000000000000000000000000000000000000000000000000000028152600401808273ffffffffffffffffffffffffffffffffffffffff1673ffffffffffffffffffffffffffffffffffffffff168152602001915050600060405180830381600087803b1515620016cb57fe5b6102c65a03f11515620016da57fe5b5050505b5b565b6000600060085460055410159050620016f962001c2f565b80620017025750805b91505b5090565b600660009054906101000a900473ffffffffffffffffffffffffffffffffffffffff1673ffffffffffffffffffffffffffffffffffffffff163373ffffffffffffffffffffffffffffffffffffffff16141515620017675760006000fd5b600073ffffffffffffffffffffffffffffffffffffffff168173ffffffffffffffffffffffffffffffffffffffff16141515620017e05780600660006101000a81548173ffffffffffffffffffffffffffffffffffffffff021916908373ffffffffffffffffffffffffffffffffffffffff1602179055505b5b5b50565b600060009054906101000a900473ffffffffffffffffffffffffffffffffffffffff1681565b6000600060085462001829346005546200184890919063ffffffff16565b111590506200183762001c3c565b8015620018415750805b91505b5090565b6000600082840190508381101515156200185e57fe5b8091505b5092915050565b60006000600060006000600b60003373ffffffffffffffffffffffffffffffffffffffff1673ffffffffffffffffffffffffffffffffffffffff168152602001908152602001600020541415156200190357600b60003373ffffffffffffffffffffffffffffffffffffffff1673ffffffffffffffffffffffffffffffffffffffff1681526020019081526020016000205493506200197a565b6200190e3362000b05565b156200191f57600a5493506200197a565b60015443039250600d54600c540391506001546002540390506200197762001965826200195686866200198090919063ffffffff16565b62001c7590919063ffffffff16565b600c5462001c9390919063ffffffff16565b93505b50505090565b6000600082840290506000841480620019a45750828482811515620019a157fe5b04145b1515620019ad57fe5b8091505b5092915050565b600360009054906101000a900473ffffffffffffffffffffffffffffffffffffffff1673ffffffffffffffffffffffffffffffffffffffff166108fc349081150290604051809050600060405180830381858888f19350505050151562001a1b57fe5b5b565b60006000600060009054906101000a900473ffffffffffffffffffffffffffffffffffffffff1673ffffffffffffffffffffffffffffffffffffffff166318160ddd6000604051602001526040518163ffffffff167c0100000000000000000000000000000000000000000000000000000000028152600401809050602060405180830381600087803b151562001ab157fe5b6102c65a03f1151562001ac057fe5b50505060405180519050915062001af7602862001ae88460646200198090919063ffffffff16565b62001c7590919063ffffffff16565b9050600060009054906101000a900473ffffffffffffffffffffffffffffffffffffffff1673ffffffffffffffffffffffffffffffffffffffff166340c10f19600360009054906101000a900473ffffffffffffffffffffffffffffffffffffffff1662001b85606462001b7686603c6200198090919063ffffffff16565b62001c7590919063ffffffff16565b6000604051602001526040518363ffffffff167c0100000000000000000000000000000000000000000000000000000000028152600401808373ffffffffffffffffffffffffffffffffffffffff1673ffffffffffffffffffffffffffffffffffffffff16815260200182815260200192505050602060405180830381600087803b151562001c1057fe5b6102c65a03f1151562001c1f57fe5b50505060405180519050505b5050565b6000600254431190505b90565b600062001c4862001cae565b8062001c6f575062001c59620016e1565b15801562001c6e575062001c6d3362000b05565b5b5b90505b90565b60006000828481151562001c8557fe5b0490508091505b5092915050565b600082821115151562001ca257fe5b81830390505b92915050565b6000600060006000439250600154831015801562001cce57506002548311155b91506000341415905081801562001ce25750805b93505b50505090565b600062001cf762001df3565b809050604051809103906000f080151562001d0e57fe5b90505b90565b6000600454600360009054906101000a900473ffffffffffffffffffffffffffffffffffffffff16600060009054906101000a900473ffffffffffffffffffffffffffffffffffffffff1662001d6962001e04565b808481526020018373ffffffffffffffffffffffffffffffffffffffff1673ffffffffffffffffffffffffffffffffffffffff1681526020018273ffffffffffffffffffffffffffffffffffffffff1673ffffffffffffffffffffffffffffffffffffffff1681526020019350505050604051809103906000f080151562001ded57fe5b90505b90565b6040516114ed8062001e1683390190565b604051611041806200330383390190560060606040526000600360146101000a81548160ff0219169083151502179055506000600360156101000a81548160ff0219169083151502179055505b33600360006101000a81548173ffffffffffffffffffffffffffffffffffffffff021916908373ffffffffffffffffffffffffffffffffffffffff1602179055505b5b6114608061008d6000396000f300606060405236156100fa576000357c0100000000000000000000000000000000000000000000000000000000900463ffffffff16806305d2035b146100fc57806306fdde0314610126578063095ea7b3146101bf57806318160ddd1461021657806323b872dd1461023c578063313ce567146102b25780633f4ba83a146102de57806340c10f191461030857806342966c681461035f5780635c975abb1461037f57806370a08231146103a95780637d64bcb4146103f35780638456cb591461041d5780638da5cb5b1461044757806395d89b4114610499578063a9059cbb14610532578063dd62ed3e14610589578063f2fde38b146105f2575bfe5b341561010457fe5b61010c610628565b604051808215151515815260200191505060405180910390f35b341561012e57fe5b61013661063b565b6040518080602001828103825283818151815260200191508051906020019080838360008314610185575b80518252602083111561018557602082019150602081019050602083039250610161565b505050905090810190601f1680156101b15780820380516001836020036101000a031916815260200191505b509250505060405180910390f35b34156101c757fe5b6101fc600480803573ffffffffffffffffffffffffffffffffffffffff16906020019091908035906020019091905050610675565b604051808215151515815260200191505060405180910390f35b341561021e57fe5b6102266107ff565b6040518082815260200191505060405180910390f35b341561024457fe5b610298600480803573ffffffffffffffffffffffffffffffffffffffff1690602001909190803573ffffffffffffffffffffffffffffffffffffffff16906020019091908035906020019091905050610805565b604051808215151515815260200191505060405180910390f35b34156102ba57fe5b6102c261083a565b604051808260ff1660ff16815260200191505060405180910390f35b34156102e657fe5b6102ee61083f565b604051808215151515815260200191505060405180910390f35b341561031057fe5b610345600480803573ffffffffffffffffffffffffffffffffffffffff1690602001909190803590602001909190505061090e565b604051808215151515815260200191505060405180910390f35b341561036757fe5b61037d6004808035906020019091905050610a95565b005b341561038757fe5b61038f610ac0565b604051808215151515815260200191505060405180910390f35b34156103b157fe5b6103dd600480803573ffffffffffffffffffffffffffffffffffffffff16906020019091905050610ad3565b6040518082815260200191505060405180910390f35b34156103fb57fe5b610403610b1d565b604051808215151515815260200191505060405180910390f35b341561042557fe5b61042d610bcf565b604051808215151515815260200191505060405180910390f35b341561044f57fe5b610457610c9f565b604051808273ffffffffffffffffffffffffffffffffffffffff1673ffffffffffffffffffffffffffffffffffffffff16815260200191505060405180910390f35b34156104a157fe5b6104a9610cc5565b60405180806020018281038252838181518152602001915080519060200190808383600083146104f8575b8051825260208311156104f8576020820191506020810190506020830392506104d4565b505050905090810190601f1680156105245780820380516001836020036101000a031916815260200191505b509250505060405180910390f35b341561053a57fe5b61056f600480803573ffffffffffffffffffffffffffffffffffffffff16906020019091908035906020019091905050610cff565b604051808215151515815260200191505060405180910390f35b341561059157fe5b6105dc600480803573ffffffffffffffffffffffffffffffffffffffff1690602001909190803573ffffffffffffffffffffffffffffffffffffffff16906020019091905050610d32565b6040518082815260200191505060405180910390f35b34156105fa57fe5b610626600480803573ffffffffffffffffffffffffffffffffffffffff16906020019091905050610dba565b005b600360159054906101000a900460ff1681565b604060405190810160405280600d81526020017f5649525455414c47524f554e440000000000000000000000000000000000000081525081565b6000600082148061070257506000600260003373ffffffffffffffffffffffffffffffffffffffff1673ffffffffffffffffffffffffffffffffffffffff16815260200190815260200160002060008573ffffffffffffffffffffffffffffffffffffffff1673ffffffffffffffffffffffffffffffffffffffff16815260200190815260200160002054145b151561070e5760006000fd5b81600260003373ffffffffffffffffffffffffffffffffffffffff1673ffffffffffffffffffffffffffffffffffffffff16815260200190815260200160002060008573ffffffffffffffffffffffffffffffffffffffff1673ffffffffffffffffffffffffffffffffffffffff168152602001908152602001600020819055508273ffffffffffffffffffffffffffffffffffffffff163373ffffffffffffffffffffffffffffffffffffffff167f8c5be1e5ebec7d5bd14f71427d1e84f3dd0314c0f7b2291e5b200ac8c7c3b925846040518082815260200191505060405180910390a3600190505b92915050565b60005481565b6000600360149054906101000a900460ff161515156108245760006000fd5b61082f848484610e94565b90505b5b9392505050565b601281565b6000600360009054906101000a900473ffffffffffffffffffffffffffffffffffffffff1673ffffffffffffffffffffffffffffffffffffffff163373ffffffffffffffffffffffffffffffffffffffff1614151561089e5760006000fd5b600360149054906101000a900460ff1615156108ba5760006000fd5b6000600360146101000a81548160ff0219169083151502179055507f7805862f689e2f13df9f062ff482ad3ad112aca9e0847911ed832e158c525b3360405180905060405180910390a1600190505b5b5b90565b6000600360009054906101000a900473ffffffffffffffffffffffffffffffffffffffff1673ffffffffffffffffffffffffffffffffffffffff163373ffffffffffffffffffffffffffffffffffffffff1614151561096d5760006000fd5b600360159054906101000a900460ff1615151561098a5760006000fd5b61099f8260005461114690919063ffffffff16565b6000819055506109f782600160008673ffffffffffffffffffffffffffffffffffffffff1673ffffffffffffffffffffffffffffffffffffffff1681526020019081526020016000205461114690919063ffffffff16565b600160008573ffffffffffffffffffffffffffffffffffffffff1673ffffffffffffffffffffffffffffffffffffffff168152602001908152602001600020819055508273ffffffffffffffffffffffffffffffffffffffff167f0f6798a560793a54c3bcfe86a93cde1e73087d944c0ea20544137d4121396885836040518082815260200191505060405180910390a2600190505b5b5b92915050565b600360149054906101000a900460ff16151515610ab25760006000fd5b610abb81611166565b5b5b50565b600360149054906101000a900460ff1681565b6000600160008373ffffffffffffffffffffffffffffffffffffffff1673ffffffffffffffffffffffffffffffffffffffff1681526020019081526020016000205490505b919050565b6000600360009054906101000a900473ffffffffffffffffffffffffffffffffffffffff1673ffffffffffffffffffffffffffffffffffffffff163373ffffffffffffffffffffffffffffffffffffffff16141515610b7c5760006000fd5b6001600360156101000a81548160ff0219169083151502179055507fae5184fba832cb2b1f702aca6117b8d265eaf03ad33eb133f19dde0f5920fa0860405180905060405180910390a1600190505b5b90565b6000600360009054906101000a900473ffffffffffffffffffffffffffffffffffffffff1673ffffffffffffffffffffffffffffffffffffffff163373ffffffffffffffffffffffffffffffffffffffff16141515610c2e5760006000fd5b600360149054906101000a900460ff16151515610c4b5760006000fd5b6001600360146101000a81548160ff0219169083151502179055507f6985a02210a168e66602d3235cb6db0e70f92b3ba4d376a33c0f3d9434bff62560405180905060405180910390a1600190505b5b5b90565b600360009054906101000a900473ffffffffffffffffffffffffffffffffffffffff1681565b604060405190810160405280600381526020017f564752000000000000000000000000000000000000000000000000000000000081525081565b6000600360149054906101000a900460ff16151515610d1e5760006000fd5b610d28838361127e565b90505b5b92915050565b6000600260008473ffffffffffffffffffffffffffffffffffffffff1673ffffffffffffffffffffffffffffffffffffffff16815260200190815260200160002060008373ffffffffffffffffffffffffffffffffffffffff1673ffffffffffffffffffffffffffffffffffffffff1681526020019081526020016000205490505b92915050565b600360009054906101000a900473ffffffffffffffffffffffffffffffffffffffff1673ffffffffffffffffffffffffffffffffffffffff163373ffffffffffffffffffffffffffffffffffffffff16141515610e175760006000fd5b600073ffffffffffffffffffffffffffffffffffffffff168173ffffffffffffffffffffffffffffffffffffffff16141515610e8f5780600360006101000a81548173ffffffffffffffffffffffffffffffffffffffff021916908373ffffffffffffffffffffffffffffffffffffffff1602179055505b5b5b50565b60006000600260008673ffffffffffffffffffffffffffffffffffffffff1673ffffffffffffffffffffffffffffffffffffffff16815260200190815260200160002060003373ffffffffffffffffffffffffffffffffffffffff1673ffffffffffffffffffffffffffffffffffffffff168152602001908152602001600020549050610f6983600160008773ffffffffffffffffffffffffffffffffffffffff1673ffffffffffffffffffffffffffffffffffffffff1681526020019081526020016000205461114690919063ffffffff16565b600160008673ffffffffffffffffffffffffffffffffffffffff1673ffffffffffffffffffffffffffffffffffffffff16815260200190815260200160002081905550610ffe83600160008873ffffffffffffffffffffffffffffffffffffffff1673ffffffffffffffffffffffffffffffffffffffff1681526020019081526020016000205461141a90919063ffffffff16565b600160008773ffffffffffffffffffffffffffffffffffffffff1673ffffffffffffffffffffffffffffffffffffffff16815260200190815260200160002081905550611054838261141a90919063ffffffff16565b600260008773ffffffffffffffffffffffffffffffffffffffff1673ffffffffffffffffffffffffffffffffffffffff16815260200190815260200160002060003373ffffffffffffffffffffffffffffffffffffffff1673ffffffffffffffffffffffffffffffffffffffff168152602001908152602001600020819055508373ffffffffffffffffffffffffffffffffffffffff168573ffffffffffffffffffffffffffffffffffffffff167fddf252ad1be2c89b69c2b068fc378daa952ba7f163c4a11628f55a4df523b3ef856040518082815260200191505060405180910390a3600191505b509392505050565b60006000828401905083811015151561115b57fe5b8091505b5092915050565b60006000821115156111785760006000fd5b3390506111cd82600160008473ffffffffffffffffffffffffffffffffffffffff1673ffffffffffffffffffffffffffffffffffffffff1681526020019081526020016000205461141a90919063ffffffff16565b600160008373ffffffffffffffffffffffffffffffffffffffff1673ffffffffffffffffffffffffffffffffffffffff168152602001908152602001600020819055506112258260005461141a90919063ffffffff16565b6000819055503373ffffffffffffffffffffffffffffffffffffffff167fcc16f5dbb4873280815c1ee09dbd06736cffcc184412cf7a71a0fdb75d397ca5836040518082815260200191505060405180910390a25b5050565b60006112d282600160003373ffffffffffffffffffffffffffffffffffffffff1673ffffffffffffffffffffffffffffffffffffffff1681526020019081526020016000205461141a90919063ffffffff16565b600160003373ffffffffffffffffffffffffffffffffffffffff1673ffffffffffffffffffffffffffffffffffffffff1681526020019081526020016000208190555061136782600160008673ffffffffffffffffffffffffffffffffffffffff1673ffffffffffffffffffffffffffffffffffffffff1681526020019081526020016000205461114690919063ffffffff16565b600160008573ffffffffffffffffffffffffffffffffffffffff1673ffffffffffffffffffffffffffffffffffffffff168152602001908152602001600020819055508273ffffffffffffffffffffffffffffffffffffffff163373ffffffffffffffffffffffffffffffffffffffff167fddf252ad1be2c89b69c2b068fc378daa952ba7f163c4a11628f55a4df523b3ef846040518082815260200191505060405180910390a3600190505b92915050565b600082821115151561142857fe5b81830390505b929150505600a165627a7a7230582004011abf67c42ad6fe93280d456054c15dce36413d66072cec234afe26abc2a800296060604052600060055560006006556000600760146101000a81548160ff021916908315150217905550341561003157fe5b604051606080611041833981016040528080519060200190919080519060200190919080519060200190919050505b5b8282825b600083141515156100765760006000fd5b60008273ffffffffffffffffffffffffffffffffffffffff161415151561009d5760006000fd5b8260028190555081600160006101000a81548173ffffffffffffffffffffffffffffffffffffffff021916908373ffffffffffffffffffffffffffffffffffffffff16021790555080600060006101000a81548173ffffffffffffffffffffffffffffffffffffffff021916908373ffffffffffffffffffffffffffffffffffffffff1602179055505b50505033600760006101000a81548173ffffffffffffffffffffffffffffffffffffffff021916908373ffffffffffffffffffffffffffffffffffffffff1602179055505b5b5050505b610ec1806101806000396000f300606060405236156100fa576000357c0100000000000000000000000000000000000000000000000000000000900463ffffffff16806312c550271461010c5780631f2698ab146101325780632958263a1461015c5780632c349627146101825780632c4e722e1461019457806334fcf437146101ba5780634042b66f146101da57806350669a0314610200578063521eb273146102125780636d20d6ae14610264578063863623bb1461028a5780638da5cb5b146102b05780639227bed614610302578063be9a655514610328578063deaa59df1461033a578063ec8ac4d814610370578063f2fde38b1461039e578063fc0c546a146103d4575b61010a5b61010733610426565b5b565b005b341561011457fe5b61011c610450565b6040518082815260200191505060405180910390f35b341561013a57fe5b610142610456565b604051808215151515815260200191505060405180910390f35b341561016457fe5b61016c610469565b6040518082815260200191505060405180910390f35b341561018a57fe5b61019261046f565b005b341561019c57fe5b6101a4610577565b6040518082815260200191505060405180910390f35b34156101c257fe5b6101d8600480803590602001909190505061057d565b005b34156101e257fe5b6101ea61061d565b6040518082815260200191505060405180910390f35b341561020857fe5b610210610623565b005b341561021a57fe5b61022261072b565b604051808273ffffffffffffffffffffffffffffffffffffffff1673ffffffffffffffffffffffffffffffffffffffff16815260200191505060405180910390f35b341561026c57fe5b610274610751565b6040518082815260200191505060405180910390f35b341561029257fe5b61029a610756565b6040518082815260200191505060405180910390f35b34156102b857fe5b6102c061075c565b604051808273ffffffffffffffffffffffffffffffffffffffff1673ffffffffffffffffffffffffffffffffffffffff16815260200191505060405180910390f35b341561030a57fe5b610312610782565b6040518082815260200191505060405180910390f35b341561033057fe5b610338610788565b005b341561034257fe5b61036e600480803573ffffffffffffffffffffffffffffffffffffffff16906020019091905050610929565b005b61039c600480803573ffffffffffffffffffffffffffffffffffffffff16906020019091905050610426565b005b34156103a657fe5b6103d2600480803573ffffffffffffffffffffffffffffffffffffffff16906020019091905050610a56565b005b34156103dc57fe5b6103e4610b30565b604051808273ffffffffffffffffffffffffffffffffffffffff1673ffffffffffffffffffffffffffffffffffffffff16815260200191505060405180910390f35b600760149054906101000a900460ff1615156104425760006000fd5b61044b81610b56565b5b5b50565b61a8c081565b600760149054906101000a900460ff1681565b60055481565b600760009054906101000a900473ffffffffffffffffffffffffffffffffffffffff1673ffffffffffffffffffffffffffffffffffffffff163373ffffffffffffffffffffffffffffffffffffffff161415156104cc5760006000fd5b600060009054906101000a900473ffffffffffffffffffffffffffffffffffffffff1673ffffffffffffffffffffffffffffffffffffffff16638456cb596000604051602001526040518163ffffffff167c0100000000000000000000000000000000000000000000000000000000028152600401809050602060405180830381600087803b151561055a57fe5b6102c65a03f1151561056857fe5b50505060405180519050505b5b565b60025481565b600760009054906101000a900473ffffffffffffffffffffffffffffffffffffffff1673ffffffffffffffffffffffffffffffffffffffff163373ffffffffffffffffffffffffffffffffffffffff161415156105da5760006000fd5b806002819055507f0b6eb270e68ec2b65cffce354325dcd6cb2449e0e8fec1184cd58da0c7b0344b816040518082815260200191505060405180910390a15b5b50565b60035481565b600760009054906101000a900473ffffffffffffffffffffffffffffffffffffffff1673ffffffffffffffffffffffffffffffffffffffff163373ffffffffffffffffffffffffffffffffffffffff161415156106805760006000fd5b600060009054906101000a900473ffffffffffffffffffffffffffffffffffffffff1673ffffffffffffffffffffffffffffffffffffffff16633f4ba83a6000604051602001526040518163ffffffff167c0100000000000000000000000000000000000000000000000000000000028152600401809050602060405180830381600087803b151561070e57fe5b6102c65a03f1151561071c57fe5b50505060405180519050505b5b565b600160009054906101000a900473ffffffffffffffffffffffffffffffffffffffff1681565b600881565b60045481565b600760009054906101000a900473ffffffffffffffffffffffffffffffffffffffff1681565b60065481565b60006000600760009054906101000a900473ffffffffffffffffffffffffffffffffffffffff1673ffffffffffffffffffffffffffffffffffffffff163373ffffffffffffffffffffffffffffffffffffffff161415156107e95760006000fd5b600760149054906101000a900460ff161515156108065760006000fd5b600060009054906101000a900473ffffffffffffffffffffffffffffffffffffffff1673ffffffffffffffffffffffffffffffffffffffff166318160ddd6000604051602001526040518163ffffffff167c0100000000000000000000000000000000000000000000000000000000028152600401809050602060405180830381600087803b151561089457fe5b6102c65a03f115156108a257fe5b5050506040518051905091506108d560646108c7600885610bb190919063ffffffff16565b610be690919063ffffffff16565b90506109026301e133806108f461a8c084610bb190919063ffffffff16565b610be690919063ffffffff16565b6004819055506001600760146101000a81548160ff0219169083151502179055505b5b5050565b600760009054906101000a900473ffffffffffffffffffffffffffffffffffffffff1673ffffffffffffffffffffffffffffffffffffffff163373ffffffffffffffffffffffffffffffffffffffff161415156109865760006000fd5b60008173ffffffffffffffffffffffffffffffffffffffff16141515156109ad5760006000fd5b80600160006101000a81548173ffffffffffffffffffffffffffffffffffffffff021916908373ffffffffffffffffffffffffffffffffffffffff1602179055507f3787b7480773021c225875ded0c374cfd0805e3061363fbbb447366e557c77a181604051808273ffffffffffffffffffffffffffffffffffffffff1673ffffffffffffffffffffffffffffffffffffffff16815260200191505060405180910390a15b5b50565b600760009054906101000a900473ffffffffffffffffffffffffffffffffffffffff1673ffffffffffffffffffffffffffffffffffffffff163373ffffffffffffffffffffffffffffffffffffffff16141515610ab35760006000fd5b600073ffffffffffffffffffffffffffffffffffffffff168173ffffffffffffffffffffffffffffffffffffffff16141515610b2b5780600760006101000a81548173ffffffffffffffffffffffffffffffffffffffff021916908373ffffffffffffffffffffffffffffffffffffffff1602179055505b5b5b50565b600060009054906101000a900473ffffffffffffffffffffffffffffffffffffffff1681565b600060008273ffffffffffffffffffffffffffffffffffffffff1614151515610b7f5760006000fd5b60003414151515610b905760006000fd5b610b98610c03565b610ba182610c3b565b9050610bac81610dd9565b5b5050565b6000600082840290506000841480610bd35750828482811515610bd057fe5b04145b1515610bdb57fe5b8091505b5092915050565b600060008284811515610bf557fe5b0490508091505b5092915050565b6000600042915061a8c082811515610c1757fe5b0682039050600554811115610c36578060058190555060006006819055505b5b5050565b600060006000349150610c5960025483610bb190919063ffffffff16565b9050610c7082600354610e1090919063ffffffff16565b600381905550600060009054906101000a900473ffffffffffffffffffffffffffffffffffffffff1673ffffffffffffffffffffffffffffffffffffffff166340c10f1985836000604051602001526040518363ffffffff167c0100000000000000000000000000000000000000000000000000000000028152600401808373ffffffffffffffffffffffffffffffffffffffff1673ffffffffffffffffffffffffffffffffffffffff16815260200182815260200192505050602060405180830381600087803b1515610d4057fe5b6102c65a03f11515610d4e57fe5b50505060405180519050508373ffffffffffffffffffffffffffffffffffffffff163373ffffffffffffffffffffffffffffffffffffffff167f623b3804fa71d67900d064613da8f94b9617215ee90799290593e1745087ad188484604051808381526020018281526020019250505060405180910390a3610dce610e30565b8092505b5050919050565b6000610df082600654610e1090919063ffffffff16565b90506004548111151515610e045760006000fd5b806006819055505b5050565b600060008284019050838110151515610e2557fe5b8091505b5092915050565b600160009054906101000a900473ffffffffffffffffffffffffffffffffffffffff1673ffffffffffffffffffffffffffffffffffffffff166108fc349081150290604051809050600060405180830381858888f193505050501515610e9257fe5b5b5600a165627a7a723058203be3370fd117424d6b473518cd178308a4de49bc7294aac26c3def03492cdb760029a165627a7a72305820f6c73cc4c633bdff561dc6fb2fb0c02bfabc3203d86692f8cb5412a29211ad54002960606040526000600360146101000a81548160ff0219169083151502179055506000600360156101000a81548160ff0219169083151502179055505b33600360006101000a81548173ffffffffffffffffffffffffffffffffffffffff021916908373ffffffffffffffffffffffffffffffffffffffff1602179055505b5b6114608061008d6000396000f300606060405236156100fa576000357c0100000000000000000000000000000000000000000000000000000000900463ffffffff16806305d2035b146100fc57806306fdde0314610126578063095ea7b3146101bf57806318160ddd1461021657806323b872dd1461023c578063313ce567146102b25780633f4ba83a146102de57806340c10f191461030857806342966c681461035f5780635c975abb1461037f57806370a08231146103a95780637d64bcb4146103f35780638456cb591461041d5780638da5cb5b1461044757806395d89b4114610499578063a9059cbb14610532578063dd62ed3e14610589578063f2fde38b146105f2575bfe5b341561010457fe5b61010c610628565b604051808215151515815260200191505060405180910390f35b341561012e57fe5b61013661063b565b6040518080602001828103825283818151815260200191508051906020019080838360008314610185575b80518252602083111561018557602082019150602081019050602083039250610161565b505050905090810190601f1680156101b15780820380516001836020036101000a031916815260200191505b509250505060405180910390f35b34156101c757fe5b6101fc600480803573ffffffffffffffffffffffffffffffffffffffff16906020019091908035906020019091905050610675565b604051808215151515815260200191505060405180910390f35b341561021e57fe5b6102266107ff565b6040518082815260200191505060405180910390f35b341561024457fe5b610298600480803573ffffffffffffffffffffffffffffffffffffffff1690602001909190803573ffffffffffffffffffffffffffffffffffffffff16906020019091908035906020019091905050610805565b604051808215151515815260200191505060405180910390f35b34156102ba57fe5b6102c261083a565b604051808260ff1660ff16815260200191505060405180910390f35b34156102e657fe5b6102ee61083f565b604051808215151515815260200191505060405180910390f35b341561031057fe5b610345600480803573ffffffffffffffffffffffffffffffffffffffff1690602001909190803590602001909190505061090e565b604051808215151515815260200191505060405180910390f35b341561036757fe5b61037d6004808035906020019091905050610a95565b005b341561038757fe5b61038f610ac0565b604051808215151515815260200191505060405180910390f35b34156103b157fe5b6103dd600480803573ffffffffffffffffffffffffffffffffffffffff16906020019091905050610ad3565b6040518082815260200191505060405180910390f35b34156103fb57fe5b610403610b1d565b604051808215151515815260200191505060405180910390f35b341561042557fe5b61042d610bcf565b604051808215151515815260200191505060405180910390f35b341561044f57fe5b610457610c9f565b604051808273ffffffffffffffffffffffffffffffffffffffff1673ffffffffffffffffffffffffffffffffffffffff16815260200191505060405180910390f35b34156104a157fe5b6104a9610cc5565b60405180806020018281038252838181518152602001915080519060200190808383600083146104f8575b8051825260208311156104f8576020820191506020810190506020830392506104d4565b505050905090810190601f1680156105245780820380516001836020036101000a031916815260200191505b509250505060405180910390f35b341561053a57fe5b61056f600480803573ffffffffffffffffffffffffffffffffffffffff16906020019091908035906020019091905050610cff565b604051808215151515815260200191505060405180910390f35b341561059157fe5b6105dc600480803573ffffffffffffffffffffffffffffffffffffffff1690602001909190803573ffffffffffffffffffffffffffffffffffffffff16906020019091905050610d32565b6040518082815260200191505060405180910390f35b34156105fa57fe5b610626600480803573ffffffffffffffffffffffffffffffffffffffff16906020019091905050610dba565b005b600360159054906101000a900460ff1681565b604060405190810160405280600d81526020017f5649525455414c47524f554e440000000000000000000000000000000000000081525081565b6000600082148061070257506000600260003373ffffffffffffffffffffffffffffffffffffffff1673ffffffffffffffffffffffffffffffffffffffff16815260200190815260200160002060008573ffffffffffffffffffffffffffffffffffffffff1673ffffffffffffffffffffffffffffffffffffffff16815260200190815260200160002054145b151561070e5760006000fd5b81600260003373ffffffffffffffffffffffffffffffffffffffff1673ffffffffffffffffffffffffffffffffffffffff16815260200190815260200160002060008573ffffffffffffffffffffffffffffffffffffffff1673ffffffffffffffffffffffffffffffffffffffff168152602001908152602001600020819055508273ffffffffffffffffffffffffffffffffffffffff163373ffffffffffffffffffffffffffffffffffffffff167f8c5be1e5ebec7d5bd14f71427d1e84f3dd0314c0f7b2291e5b200ac8c7c3b925846040518082815260200191505060405180910390a3600190505b92915050565b60005481565b6000600360149054906101000a900460ff161515156108245760006000fd5b61082f848484610e94565b90505b5b9392505050565b601281565b6000600360009054906101000a900473ffffffffffffffffffffffffffffffffffffffff1673ffffffffffffffffffffffffffffffffffffffff163373ffffffffffffffffffffffffffffffffffffffff1614151561089e5760006000fd5b600360149054906101000a900460ff1615156108ba5760006000fd5b6000600360146101000a81548160ff0219169083151502179055507f7805862f689e2f13df9f062ff482ad3ad112aca9e0847911ed832e158c525b3360405180905060405180910390a1600190505b5b5b90565b6000600360009054906101000a900473ffffffffffffffffffffffffffffffffffffffff1673ffffffffffffffffffffffffffffffffffffffff163373ffffffffffffffffffffffffffffffffffffffff1614151561096d5760006000fd5b600360159054906101000a900460ff1615151561098a5760006000fd5b61099f8260005461114690919063ffffffff16565b6000819055506109f782600160008673ffffffffffffffffffffffffffffffffffffffff1673ffffffffffffffffffffffffffffffffffffffff1681526020019081526020016000205461114690919063ffffffff16565b600160008573ffffffffffffffffffffffffffffffffffffffff1673ffffffffffffffffffffffffffffffffffffffff168152602001908152602001600020819055508273ffffffffffffffffffffffffffffffffffffffff167f0f6798a560793a54c3bcfe86a93cde1e73087d944c0ea20544137d4121396885836040518082815260200191505060405180910390a2600190505b5b5b92915050565b600360149054906101000a900460ff16151515610ab25760006000fd5b610abb81611166565b5b5b50565b600360149054906101000a900460ff1681565b6000600160008373ffffffffffffffffffffffffffffffffffffffff1673ffffffffffffffffffffffffffffffffffffffff1681526020019081526020016000205490505b919050565b6000600360009054906101000a900473ffffffffffffffffffffffffffffffffffffffff1673ffffffffffffffffffffffffffffffffffffffff163373ffffffffffffffffffffffffffffffffffffffff16141515610b7c5760006000fd5b6001600360156101000a81548160ff0219169083151502179055507fae5184fba832cb2b1f702aca6117b8d265eaf03ad33eb133f19dde0f5920fa0860405180905060405180910390a1600190505b5b90565b6000600360009054906101000a900473ffffffffffffffffffffffffffffffffffffffff1673ffffffffffffffffffffffffffffffffffffffff163373ffffffffffffffffffffffffffffffffffffffff16141515610c2e5760006000fd5b600360149054906101000a900460ff16151515610c4b5760006000fd5b6001600360146101000a81548160ff0219169083151502179055507f6985a02210a168e66602d3235cb6db0e70f92b3ba4d376a33c0f3d9434bff62560405180905060405180910390a1600190505b5b5b90565b600360009054906101000a900473ffffffffffffffffffffffffffffffffffffffff1681565b604060405190810160405280600381526020017f564752000000000000000000000000000000000000000000000000000000000081525081565b6000600360149054906101000a900460ff16151515610d1e5760006000fd5b610d28838361127e565b90505b5b92915050565b6000600260008473ffffffffffffffffffffffffffffffffffffffff1673ffffffffffffffffffffffffffffffffffffffff16815260200190815260200160002060008373ffffffffffffffffffffffffffffffffffffffff1673ffffffffffffffffffffffffffffffffffffffff1681526020019081526020016000205490505b92915050565b600360009054906101000a900473ffffffffffffffffffffffffffffffffffffffff1673ffffffffffffffffffffffffffffffffffffffff163373ffffffffffffffffffffffffffffffffffffffff16141515610e175760006000fd5b600073ffffffffffffffffffffffffffffffffffffffff168173ffffffffffffffffffffffffffffffffffffffff16141515610e8f5780600360006101000a81548173ffffffffffffffffffffffffffffffffffffffff021916908373ffffffffffffffffffffffffffffffffffffffff1602179055505b5b5b50565b60006000600260008673ffffffffffffffffffffffffffffffffffffffff1673ffffffffffffffffffffffffffffffffffffffff16815260200190815260200160002060003373ffffffffffffffffffffffffffffffffffffffff1673ffffffffffffffffffffffffffffffffffffffff168152602001908152602001600020549050610f6983600160008773ffffffffffffffffffffffffffffffffffffffff1673ffffffffffffffffffffffffffffffffffffffff1681526020019081526020016000205461114690919063ffffffff16565b600160008673ffffffffffffffffffffffffffffffffffffffff1673ffffffffffffffffffffffffffffffffffffffff16815260200190815260200160002081905550610ffe83600160008873ffffffffffffffffffffffffffffffffffffffff1673ffffffffffffffffffffffffffffffffffffffff1681526020019081526020016000205461141a90919063ffffffff16565b600160008773ffffffffffffffffffffffffffffffffffffffff1673ffffffffffffffffffffffffffffffffffffffff16815260200190815260200160002081905550611054838261141a90919063ffffffff16565b600260008773ffffffffffffffffffffffffffffffffffffffff1673ffffffffffffffffffffffffffffffffffffffff16815260200190815260200160002060003373ffffffffffffffffffffffffffffffffffffffff1673ffffffffffffffffffffffffffffffffffffffff168152602001908152602001600020819055508373ffffffffffffffffffffffffffffffffffffffff168573ffffffffffffffffffffffffffffffffffffffff167fddf252ad1be2c89b69c2b068fc378daa952ba7f163c4a11628f55a4df523b3ef856040518082815260200191505060405180910390a3600191505b509392505050565b60006000828401905083811015151561115b57fe5b8091505b5092915050565b60006000821115156111785760006000fd5b3390506111cd82600160008473ffffffffffffffffffffffffffffffffffffffff1673ffffffffffffffffffffffffffffffffffffffff1681526020019081526020016000205461141a90919063ffffffff16565b600160008373ffffffffffffffffffffffffffffffffffffffff1673ffffffffffffffffffffffffffffffffffffffff168152602001908152602001600020819055506112258260005461141a90919063ffffffff16565b6000819055503373ffffffffffffffffffffffffffffffffffffffff167fcc16f5dbb4873280815c1ee09dbd06736cffcc184412cf7a71a0fdb75d397ca5836040518082815260200191505060405180910390a25b5050565b60006112d282600160003373ffffffffffffffffffffffffffffffffffffffff1673ffffffffffffffffffffffffffffffffffffffff1681526020019081526020016000205461141a90919063ffffffff16565b600160003373ffffffffffffffffffffffffffffffffffffffff1673ffffffffffffffffffffffffffffffffffffffff1681526020019081526020016000208190555061136782600160008673ffffffffffffffffffffffffffffffffffffffff1673ffffffffffffffffffffffffffffffffffffffff1681526020019081526020016000205461114690919063ffffffff16565b600160008573ffffffffffffffffffffffffffffffffffffffff1673ffffffffffffffffffffffffffffffffffffffff168152602001908152602001600020819055508273ffffffffffffffffffffffffffffffffffffffff163373ffffffffffffffffffffffffffffffffffffffff167fddf252ad1be2c89b69c2b068fc378daa952ba7f163c4a11628f55a4df523b3ef846040518082815260200191505060405180910390a3600190505b92915050565b600082821115151561142857fe5b81830390505b929150505600a165627a7a7230582004011abf67c42ad6fe93280d456054c15dce36413d66072cec234afe26abc2a800296060604052600060055560006006556000600760146101000a81548160ff021916908315150217905550341561003157fe5b604051606080611041833981016040528080519060200190919080519060200190919080519060200190919050505b5b8282825b600083141515156100765760006000fd5b60008273ffffffffffffffffffffffffffffffffffffffff161415151561009d5760006000fd5b8260028190555081600160006101000a81548173ffffffffffffffffffffffffffffffffffffffff021916908373ffffffffffffffffffffffffffffffffffffffff16021790555080600060006101000a81548173ffffffffffffffffffffffffffffffffffffffff021916908373ffffffffffffffffffffffffffffffffffffffff1602179055505b50505033600760006101000a81548173ffffffffffffffffffffffffffffffffffffffff021916908373ffffffffffffffffffffffffffffffffffffffff1602179055505b5b5050505b610ec1806101806000396000f300606060405236156100fa576000357c0100000000000000000000000000000000000000000000000000000000900463ffffffff16806312c550271461010c5780631f2698ab146101325780632958263a1461015c5780632c349627146101825780632c4e722e1461019457806334fcf437146101ba5780634042b66f146101da57806350669a0314610200578063521eb273146102125780636d20d6ae14610264578063863623bb1461028a5780638da5cb5b146102b05780639227bed614610302578063be9a655514610328578063deaa59df1461033a578063ec8ac4d814610370578063f2fde38b1461039e578063fc0c546a146103d4575b61010a5b61010733610426565b5b565b005b341561011457fe5b61011c610450565b6040518082815260200191505060405180910390f35b341561013a57fe5b610142610456565b604051808215151515815260200191505060405180910390f35b341561016457fe5b61016c610469565b6040518082815260200191505060405180910390f35b341561018a57fe5b61019261046f565b005b341561019c57fe5b6101a4610577565b6040518082815260200191505060405180910390f35b34156101c257fe5b6101d8600480803590602001909190505061057d565b005b34156101e257fe5b6101ea61061d565b6040518082815260200191505060405180910390f35b341561020857fe5b610210610623565b005b341561021a57fe5b61022261072b565b604051808273ffffffffffffffffffffffffffffffffffffffff1673ffffffffffffffffffffffffffffffffffffffff16815260200191505060405180910390f35b341561026c57fe5b610274610751565b6040518082815260200191505060405180910390f35b341561029257fe5b61029a610756565b6040518082815260200191505060405180910390f35b34156102b857fe5b6102c061075c565b604051808273ffffffffffffffffffffffffffffffffffffffff1673ffffffffffffffffffffffffffffffffffffffff16815260200191505060405180910390f35b341561030a57fe5b610312610782565b6040518082815260200191505060405180910390f35b341561033057fe5b610338610788565b005b341561034257fe5b61036e600480803573ffffffffffffffffffffffffffffffffffffffff16906020019091905050610929565b005b61039c600480803573ffffffffffffffffffffffffffffffffffffffff16906020019091905050610426565b005b34156103a657fe5b6103d2600480803573ffffffffffffffffffffffffffffffffffffffff16906020019091905050610a56565b005b34156103dc57fe5b6103e4610b30565b604051808273ffffffffffffffffffffffffffffffffffffffff1673ffffffffffffffffffffffffffffffffffffffff16815260200191505060405180910390f35b600760149054906101000a900460ff1615156104425760006000fd5b61044b81610b56565b5b5b50565b61a8c081565b600760149054906101000a900460ff1681565b60055481565b600760009054906101000a900473ffffffffffffffffffffffffffffffffffffffff1673ffffffffffffffffffffffffffffffffffffffff163373ffffffffffffffffffffffffffffffffffffffff161415156104cc5760006000fd5b600060009054906101000a900473ffffffffffffffffffffffffffffffffffffffff1673ffffffffffffffffffffffffffffffffffffffff16638456cb596000604051602001526040518163ffffffff167c0100000000000000000000000000000000000000000000000000000000028152600401809050602060405180830381600087803b151561055a57fe5b6102c65a03f1151561056857fe5b50505060405180519050505b5b565b60025481565b600760009054906101000a900473ffffffffffffffffffffffffffffffffffffffff1673ffffffffffffffffffffffffffffffffffffffff163373ffffffffffffffffffffffffffffffffffffffff161415156105da5760006000fd5b806002819055507f0b6eb270e68ec2b65cffce354325dcd6cb2449e0e8fec1184cd58da0c7b0344b816040518082815260200191505060405180910390a15b5b50565b60035481565b600760009054906101000a900473ffffffffffffffffffffffffffffffffffffffff1673ffffffffffffffffffffffffffffffffffffffff163373ffffffffffffffffffffffffffffffffffffffff161415156106805760006000fd5b600060009054906101000a900473ffffffffffffffffffffffffffffffffffffffff1673ffffffffffffffffffffffffffffffffffffffff16633f4ba83a6000604051602001526040518163ffffffff167c0100000000000000000000000000000000000000000000000000000000028152600401809050602060405180830381600087803b151561070e57fe5b6102c65a03f1151561071c57fe5b50505060405180519050505b5b565b600160009054906101000a900473ffffffffffffffffffffffffffffffffffffffff1681565b600881565b60045481565b600760009054906101000a900473ffffffffffffffffffffffffffffffffffffffff1681565b60065481565b60006000600760009054906101000a900473ffffffffffffffffffffffffffffffffffffffff1673ffffffffffffffffffffffffffffffffffffffff163373ffffffffffffffffffffffffffffffffffffffff161415156107e95760006000fd5b600760149054906101000a900460ff161515156108065760006000fd5b600060009054906101000a900473ffffffffffffffffffffffffffffffffffffffff1673ffffffffffffffffffffffffffffffffffffffff166318160ddd6000604051602001526040518163ffffffff167c0100000000000000000000000000000000000000000000000000000000028152600401809050602060405180830381600087803b151561089457fe5b6102c65a03f115156108a257fe5b5050506040518051905091506108d560646108c7600885610bb190919063ffffffff16565b610be690919063ffffffff16565b90506109026301e133806108f461a8c084610bb190919063ffffffff16565b610be690919063ffffffff16565b6004819055506001600760146101000a81548160ff0219169083151502179055505b5b5050565b600760009054906101000a900473ffffffffffffffffffffffffffffffffffffffff1673ffffffffffffffffffffffffffffffffffffffff163373ffffffffffffffffffffffffffffffffffffffff161415156109865760006000fd5b60008173ffffffffffffffffffffffffffffffffffffffff16141515156109ad5760006000fd5b80600160006101000a81548173ffffffffffffffffffffffffffffffffffffffff021916908373ffffffffffffffffffffffffffffffffffffffff1602179055507f3787b7480773021c225875ded0c374cfd0805e3061363fbbb447366e557c77a181604051808273ffffffffffffffffffffffffffffffffffffffff1673ffffffffffffffffffffffffffffffffffffffff16815260200191505060405180910390a15b5b50565b600760009054906101000a900473ffffffffffffffffffffffffffffffffffffffff1673ffffffffffffffffffffffffffffffffffffffff163373ffffffffffffffffffffffffffffffffffffffff16141515610ab35760006000fd5b600073ffffffffffffffffffffffffffffffffffffffff168173ffffffffffffffffffffffffffffffffffffffff16141515610b2b5780600760006101000a81548173ffffffffffffffffffffffffffffffffffffffff021916908373ffffffffffffffffffffffffffffffffffffffff1602179055505b5b5b50565b600060009054906101000a900473ffffffffffffffffffffffffffffffffffffffff1681565b600060008273ffffffffffffffffffffffffffffffffffffffff1614151515610b7f5760006000fd5b60003414151515610b905760006000fd5b610b98610c03565b610ba182610c3b565b9050610bac81610dd9565b5b5050565b6000600082840290506000841480610bd35750828482811515610bd057fe5b04145b1515610bdb57fe5b8091505b5092915050565b600060008284811515610bf557fe5b0490508091505b5092915050565b6000600042915061a8c082811515610c1757fe5b0682039050600554811115610c36578060058190555060006006819055505b5b5050565b600060006000349150610c5960025483610bb190919063ffffffff16565b9050610c7082600354610e1090919063ffffffff16565b600381905550600060009054906101000a900473ffffffffffffffffffffffffffffffffffffffff1673ffffffffffffffffffffffffffffffffffffffff166340c10f1985836000604051602001526040518363ffffffff167c0100000000000000000000000000000000000000000000000000000000028152600401808373ffffffffffffffffffffffffffffffffffffffff1673ffffffffffffffffffffffffffffffffffffffff16815260200182815260200192505050602060405180830381600087803b1515610d4057fe5b6102c65a03f11515610d4e57fe5b50505060405180519050508373ffffffffffffffffffffffffffffffffffffffff163373ffffffffffffffffffffffffffffffffffffffff167f623b3804fa71d67900d064613da8f94b9617215ee90799290593e1745087ad188484604051808381526020018281526020019250505060405180910390a3610dce610e30565b8092505b5050919050565b6000610df082600654610e1090919063ffffffff16565b90506004548111151515610e045760006000fd5b806006819055505b5050565b600060008284019050838110151515610e2557fe5b8091505b5092915050565b600160009054906101000a900473ffffffffffffffffffffffffffffffffffffffff1673ffffffffffffffffffffffffffffffffffffffff166108fc349081150290604051809050600060405180830381858888f193505050501515610e9257fe5b5b5600a165627a7a723058203be3370fd117424d6b473518cd178308a4de49bc7294aac26c3def03492cdb760029",
  "source": "pragma solidity ^0.4.11;\n\nimport \"zeppelin-solidity/contracts/crowdsale/CappedCrowdsale.sol\";\nimport \"zeppelin-solidity/contracts/crowdsale/Crowdsale.sol\";\nimport \"zeppelin-solidity/contracts/crowdsale/FinalizableCrowdsale.sol\";\nimport \"./WhitelistedCrowdsale.sol\";\nimport \"./VGRContinuousSale.sol\";\nimport \"./VGRToken.sol\";\n\ncontract VGRCrowdsale is\n    WhitelistedCrowdsale,\n    CappedCrowdsale,\n    FinalizableCrowdsale\n{\n    uint256 public constant TOTAL_SHARE = 100;\n    uint256 public constant CROWDSALE_SHARE = 40;\n    uint256 public constant FOUNDATION_SHARE = 60;\n\n    // price at which whitelisted buyers will be able to buy tokens\n    uint256 public preferentialRate;\n\n    // customize the rate for each whitelisted buyer\n    mapping(address => uint256) public buyerRate;\n\n    // initial rate at which tokens are offered\n    uint256 public initialRate;\n\n    // end rate at which tokens are offered\n    uint256 public endRate;\n\n    // continuous crowdsale contract\n    VGRContinuousSale public continuousSale;\n\n    event WalletChange(address wallet);\n\n    event PreferentialRateChange(address indexed buyer, uint256 rate);\n\n    event InitialRateChange(uint256 rate);\n\n    event EndRateChange(uint256 rate);\n\n    function VGRCrowdsale(\n        uint256 _startBlock,\n        uint256 _endBlock,\n        uint256 _initialRate,\n        uint256 _endRate,\n        uint256 _preferentialRate,\n        address _wallet\n    )\n        CappedCrowdsale(86206 ether)\n        WhitelistedCrowdsale()\n        FinalizableCrowdsale()\n        Crowdsale(_startBlock, _endBlock, _initialRate, _wallet)\n    {\n        require(_initialRate > 0);\n        require(_endRate > 0);\n        require(_preferentialRate > 0);\n\n        initialRate = _initialRate;\n        endRate = _endRate;\n        preferentialRate = _preferentialRate;\n\n        continuousSale = createContinuousSaleContract();\n\n        VGRToken(token).pause();\n    }\n\n    function createTokenContract() internal returns (MintableToken) {\n        return new VGRToken();\n    }\n\n    function createContinuousSaleContract()\n        internal\n        returns (VGRContinuousSale)\n    {\n        return new VGRContinuousSale(rate, wallet, token);\n    }\n\n    function setBuyerRate(address buyer, uint256 rate) public onlyOwner {\n        require(rate != 0);\n        require(isWhitelisted(buyer));\n        require(block.number < startBlock);\n\n        buyerRate[buyer] = rate;\n\n        PreferentialRateChange(buyer, rate);\n    }\n\n    function setInitialRate(uint256 rate) public onlyOwner {\n        require(rate != 0);\n        require(block.number < startBlock);\n\n        initialRate = rate;\n\n        InitialRateChange(rate);\n    }\n\n    function setEndRate(uint256 rate) public onlyOwner {\n        require(rate != 0);\n        require(block.number < startBlock);\n\n        endRate = rate;\n\n        EndRateChange(rate);\n    }\n\n    function getRate() internal returns (uint256) {\n        // some early buyers are offered a discount on the crowdsale price\n        if (buyerRate[msg.sender] != 0) {\n            return buyerRate[msg.sender];\n        }\n\n        // whitelisted buyers can purchase at preferential price before crowdsale ends\n        if (isWhitelisted(msg.sender)) {\n            return preferentialRate;\n        }\n\n        // otherwise compute the price for the auction\n        uint256 elapsed = block.number - startBlock;\n        uint256 rateRange = initialRate - endRate;\n        uint256 blockRange = endBlock - startBlock;\n\n        return initialRate.sub(rateRange.mul(elapsed).div(blockRange));\n    }\n\n    // low level token purchase function\n    function buyTokens(address beneficiary) payable {\n        require(beneficiary != 0x0);\n        require(validPurchase());\n\n        uint256 weiAmount = msg.value;\n        uint256 updatedWeiRaised = weiRaised.add(weiAmount);\n\n        uint256 rate = getRate();\n        // calculate token amount to be created\n        uint256 tokens = weiAmount.mul(rate);\n\n        // update state\n        weiRaised = updatedWeiRaised;\n\n        token.mint(beneficiary, tokens);\n        TokenPurchase(msg.sender, beneficiary, weiAmount, tokens);\n\n        forwardFunds();\n    }\n\n    function setWallet(address _wallet) public onlyOwner {\n        require(_wallet != 0x0);\n        wallet = _wallet;\n        continuousSale.setWallet(_wallet);\n        WalletChange(_wallet);\n    }\n\n    function unpauseToken() onlyOwner {\n        require(isFinalized);\n        VGRToken(token).unpause();\n    }\n\n    function pauseToken() onlyOwner {\n        require(isFinalized);\n        VGRToken(token).pause();\n    }\n\n    function beginContinuousSale() public onlyOwner {\n        require(isFinalized);\n\n        token.transferOwnership(continuousSale);\n\n        continuousSale.start();\n        continuousSale.transferOwnership(owner);\n    }\n\n    function finalization() internal {\n        uint256 totalSupply = token.totalSupply();\n        uint256 finalSupply = TOTAL_SHARE.mul(totalSupply).div(CROWDSALE_SHARE);\n\n        // emit tokens for the foundation\n        token.mint(wallet, FOUNDATION_SHARE.mul(finalSupply).div(TOTAL_SHARE));\n\n        // NOTE: cannot call super here because it would finish minting and\n        // the continuous sale would not be able to proceed\n    }\n}\n",
  "sourcePath": "/Users/ac12644/Desktop/vgr/contracts/VGRCrowdsale.sol",
  "compiler": {
    "name": "solc",
    "version": "0.4.11+commit.68ef5810.Emscripten.clang"
  },
  "schemaVersion": "3.4.8",
  "updatedAt": "2022-08-30T10:55:27.447Z",
  "devdoc": {
    "methods": {
      "transferOwnership(address)": {
        "details": "Allows the current owner to transfer control of the contract to a newOwner.",
        "params": {
          "newOwner": "The address to transfer ownership to."
        }
      }
    }
  },
  "userdoc": {
    "methods": {}
  }
}