{
  "contractName": "VGRContinuousSale",
  "abi": [
    {
      "constant": true,
      "inputs": [],
      "name": "BUCKET_SIZE",
      "outputs": [
        {
          "name": "",
          "type": "uint256"
        }
      ],
      "payable": false,
      "type": "function"
    },
    {
      "constant": true,
      "inputs": [],
      "name": "started",
      "outputs": [
        {
          "name": "",
          "type": "bool"
        }
      ],
      "payable": false,
      "type": "function"
    },
    {
      "constant": true,
      "inputs": [],
      "name": "lastBucket",
      "outputs": [
        {
          "name": "",
          "type": "uint256"
        }
      ],
      "payable": false,
      "type": "function"
    },
    {
      "constant": false,
      "inputs": [],
      "name": "pauseToken",
      "outputs": [],
      "payable": false,
      "type": "function"
    },
    {
      "constant": true,
      "inputs": [],
      "name": "rate",
      "outputs": [
        {
          "name": "",
          "type": "uint256"
        }
      ],
      "payable": false,
      "type": "function"
    },
    {
      "constant": false,
      "inputs": [
        {
          "name": "_rate",
          "type": "uint256"
        }
      ],
      "name": "setRate",
      "outputs": [],
      "payable": false,
      "type": "function"
    },
    {
      "constant": true,
      "inputs": [],
      "name": "weiRaised",
      "outputs": [
        {
          "name": "",
          "type": "uint256"
        }
      ],
      "payable": false,
      "type": "function"
    },
    {
      "constant": false,
      "inputs": [],
      "name": "unpauseToken",
      "outputs": [],
      "payable": false,
      "type": "function"
    },
    {
      "constant": true,
      "inputs": [],
      "name": "wallet",
      "outputs": [
        {
          "name": "",
          "type": "address"
        }
      ],
      "payable": false,
      "type": "function"
    },
    {
      "constant": true,
      "inputs": [],
      "name": "INFLATION",
      "outputs": [
        {
          "name": "",
          "type": "uint256"
        }
      ],
      "payable": false,
      "type": "function"
    },
    {
      "constant": true,
      "inputs": [],
      "name": "issuance",
      "outputs": [
        {
          "name": "",
          "type": "uint256"
        }
      ],
      "payable": false,
      "type": "function"
    },
    {
      "constant": true,
      "inputs": [],
      "name": "owner",
      "outputs": [
        {
          "name": "",
          "type": "address"
        }
      ],
      "payable": false,
      "type": "function"
    },
    {
      "constant": true,
      "inputs": [],
      "name": "bucketAmount",
      "outputs": [
        {
          "name": "",
          "type": "uint256"
        }
      ],
      "payable": false,
      "type": "function"
    },
    {
      "constant": false,
      "inputs": [],
      "name": "start",
      "outputs": [],
      "payable": false,
      "type": "function"
    },
    {
      "constant": false,
      "inputs": [
        {
          "name": "_wallet",
          "type": "address"
        }
      ],
      "name": "setWallet",
      "outputs": [],
      "payable": false,
      "type": "function"
    },
    {
      "constant": false,
      "inputs": [
        {
          "name": "beneficiary",
          "type": "address"
        }
      ],
      "name": "buyTokens",
      "outputs": [],
      "payable": true,
      "type": "function"
    },
    {
      "constant": false,
      "inputs": [
        {
          "name": "newOwner",
          "type": "address"
        }
      ],
      "name": "transferOwnership",
      "outputs": [],
      "payable": false,
      "type": "function"
    },
    {
      "constant": true,
      "inputs": [],
      "name": "token",
      "outputs": [
        {
          "name": "",
          "type": "address"
        }
      ],
      "payable": false,
      "type": "function"
    },
    {
      "inputs": [
        {
          "name": "_rate",
          "type": "uint256"
        },
        {
          "name": "_wallet",
          "type": "address"
        },
        {
          "name": "_token",
          "type": "address"
        }
      ],
      "payable": false,
      "type": "constructor"
    },
    {
      "payable": true,
      "type": "fallback"
    },
    {
      "anonymous": false,
      "inputs": [
        {
          "indexed": false,
          "name": "amount",
          "type": "uint256"
        }
      ],
      "name": "RateChange",
      "type": "event"
    },
    {
      "anonymous": false,
      "inputs": [
        {
          "indexed": false,
          "name": "wallet",
          "type": "address"
        }
      ],
      "name": "WalletChange",
      "type": "event"
    },
    {
      "anonymous": false,
      "inputs": [
        {
          "indexed": true,
          "name": "investor",
          "type": "address"
        },
        {
          "indexed": true,
          "name": "beneficiary",
          "type": "address"
        },
        {
          "indexed": false,
          "name": "weiAmount",
          "type": "uint256"
        },
        {
          "indexed": false,
          "name": "tokens",
          "type": "uint256"
        }
      ],
      "name": "TokenPurchase",
      "type": "event"
    }
  ],
  "bytecode": "0x6060604052600060055560006006556000600760146101000a81548160ff021916908315150217905550341561003157fe5b604051606080611041833981016040528080519060200190919080519060200190919080519060200190919050505b5b8282825b600083141515156100765760006000fd5b60008273ffffffffffffffffffffffffffffffffffffffff161415151561009d5760006000fd5b8260028190555081600160006101000a81548173ffffffffffffffffffffffffffffffffffffffff021916908373ffffffffffffffffffffffffffffffffffffffff16021790555080600060006101000a81548173ffffffffffffffffffffffffffffffffffffffff021916908373ffffffffffffffffffffffffffffffffffffffff1602179055505b50505033600760006101000a81548173ffffffffffffffffffffffffffffffffffffffff021916908373ffffffffffffffffffffffffffffffffffffffff1602179055505b5b5050505b610ec1806101806000396000f300606060405236156100fa576000357c0100000000000000000000000000000000000000000000000000000000900463ffffffff16806312c550271461010c5780631f2698ab146101325780632958263a1461015c5780632c349627146101825780632c4e722e1461019457806334fcf437146101ba5780634042b66f146101da57806350669a0314610200578063521eb273146102125780636d20d6ae14610264578063863623bb1461028a5780638da5cb5b146102b05780639227bed614610302578063be9a655514610328578063deaa59df1461033a578063ec8ac4d814610370578063f2fde38b1461039e578063fc0c546a146103d4575b61010a5b61010733610426565b5b565b005b341561011457fe5b61011c610450565b6040518082815260200191505060405180910390f35b341561013a57fe5b610142610456565b604051808215151515815260200191505060405180910390f35b341561016457fe5b61016c610469565b6040518082815260200191505060405180910390f35b341561018a57fe5b61019261046f565b005b341561019c57fe5b6101a4610577565b6040518082815260200191505060405180910390f35b34156101c257fe5b6101d8600480803590602001909190505061057d565b005b34156101e257fe5b6101ea61061d565b6040518082815260200191505060405180910390f35b341561020857fe5b610210610623565b005b341561021a57fe5b61022261072b565b604051808273ffffffffffffffffffffffffffffffffffffffff1673ffffffffffffffffffffffffffffffffffffffff16815260200191505060405180910390f35b341561026c57fe5b610274610751565b6040518082815260200191505060405180910390f35b341561029257fe5b61029a610756565b6040518082815260200191505060405180910390f35b34156102b857fe5b6102c061075c565b604051808273ffffffffffffffffffffffffffffffffffffffff1673ffffffffffffffffffffffffffffffffffffffff16815260200191505060405180910390f35b341561030a57fe5b610312610782565b6040518082815260200191505060405180910390f35b341561033057fe5b610338610788565b005b341561034257fe5b61036e600480803573ffffffffffffffffffffffffffffffffffffffff16906020019091905050610929565b005b61039c600480803573ffffffffffffffffffffffffffffffffffffffff16906020019091905050610426565b005b34156103a657fe5b6103d2600480803573ffffffffffffffffffffffffffffffffffffffff16906020019091905050610a56565b005b34156103dc57fe5b6103e4610b30565b604051808273ffffffffffffffffffffffffffffffffffffffff1673ffffffffffffffffffffffffffffffffffffffff16815260200191505060405180910390f35b600760149054906101000a900460ff1615156104425760006000fd5b61044b81610b56565b5b5b50565b61a8c081565b600760149054906101000a900460ff1681565b60055481565b600760009054906101000a900473ffffffffffffffffffffffffffffffffffffffff1673ffffffffffffffffffffffffffffffffffffffff163373ffffffffffffffffffffffffffffffffffffffff161415156104cc5760006000fd5b600060009054906101000a900473ffffffffffffffffffffffffffffffffffffffff1673ffffffffffffffffffffffffffffffffffffffff16638456cb596000604051602001526040518163ffffffff167c0100000000000000000000000000000000000000000000000000000000028152600401809050602060405180830381600087803b151561055a57fe5b6102c65a03f1151561056857fe5b50505060405180519050505b5b565b60025481565b600760009054906101000a900473ffffffffffffffffffffffffffffffffffffffff1673ffffffffffffffffffffffffffffffffffffffff163373ffffffffffffffffffffffffffffffffffffffff161415156105da5760006000fd5b806002819055507f0b6eb270e68ec2b65cffce354325dcd6cb2449e0e8fec1184cd58da0c7b0344b816040518082815260200191505060405180910390a15b5b50565b60035481565b600760009054906101000a900473ffffffffffffffffffffffffffffffffffffffff1673ffffffffffffffffffffffffffffffffffffffff163373ffffffffffffffffffffffffffffffffffffffff161415156106805760006000fd5b600060009054906101000a900473ffffffffffffffffffffffffffffffffffffffff1673ffffffffffffffffffffffffffffffffffffffff16633f4ba83a6000604051602001526040518163ffffffff167c0100000000000000000000000000000000000000000000000000000000028152600401809050602060405180830381600087803b151561070e57fe5b6102c65a03f1151561071c57fe5b50505060405180519050505b5b565b600160009054906101000a900473ffffffffffffffffffffffffffffffffffffffff1681565b600881565b60045481565b600760009054906101000a900473ffffffffffffffffffffffffffffffffffffffff1681565b60065481565b60006000600760009054906101000a900473ffffffffffffffffffffffffffffffffffffffff1673ffffffffffffffffffffffffffffffffffffffff163373ffffffffffffffffffffffffffffffffffffffff161415156107e95760006000fd5b600760149054906101000a900460ff161515156108065760006000fd5b600060009054906101000a900473ffffffffffffffffffffffffffffffffffffffff1673ffffffffffffffffffffffffffffffffffffffff166318160ddd6000604051602001526040518163ffffffff167c0100000000000000000000000000000000000000000000000000000000028152600401809050602060405180830381600087803b151561089457fe5b6102c65a03f115156108a257fe5b5050506040518051905091506108d560646108c7600885610bb190919063ffffffff16565b610be690919063ffffffff16565b90506109026301e133806108f461a8c084610bb190919063ffffffff16565b610be690919063ffffffff16565b6004819055506001600760146101000a81548160ff0219169083151502179055505b5b5050565b600760009054906101000a900473ffffffffffffffffffffffffffffffffffffffff1673ffffffffffffffffffffffffffffffffffffffff163373ffffffffffffffffffffffffffffffffffffffff161415156109865760006000fd5b60008173ffffffffffffffffffffffffffffffffffffffff16141515156109ad5760006000fd5b80600160006101000a81548173ffffffffffffffffffffffffffffffffffffffff021916908373ffffffffffffffffffffffffffffffffffffffff1602179055507f3787b7480773021c225875ded0c374cfd0805e3061363fbbb447366e557c77a181604051808273ffffffffffffffffffffffffffffffffffffffff1673ffffffffffffffffffffffffffffffffffffffff16815260200191505060405180910390a15b5b50565b600760009054906101000a900473ffffffffffffffffffffffffffffffffffffffff1673ffffffffffffffffffffffffffffffffffffffff163373ffffffffffffffffffffffffffffffffffffffff16141515610ab35760006000fd5b600073ffffffffffffffffffffffffffffffffffffffff168173ffffffffffffffffffffffffffffffffffffffff16141515610b2b5780600760006101000a81548173ffffffffffffffffffffffffffffffffffffffff021916908373ffffffffffffffffffffffffffffffffffffffff1602179055505b5b5b50565b600060009054906101000a900473ffffffffffffffffffffffffffffffffffffffff1681565b600060008273ffffffffffffffffffffffffffffffffffffffff1614151515610b7f5760006000fd5b60003414151515610b905760006000fd5b610b98610c03565b610ba182610c3b565b9050610bac81610dd9565b5b5050565b6000600082840290506000841480610bd35750828482811515610bd057fe5b04145b1515610bdb57fe5b8091505b5092915050565b600060008284811515610bf557fe5b0490508091505b5092915050565b6000600042915061a8c082811515610c1757fe5b0682039050600554811115610c36578060058190555060006006819055505b5b5050565b600060006000349150610c5960025483610bb190919063ffffffff16565b9050610c7082600354610e1090919063ffffffff16565b600381905550600060009054906101000a900473ffffffffffffffffffffffffffffffffffffffff1673ffffffffffffffffffffffffffffffffffffffff166340c10f1985836000604051602001526040518363ffffffff167c0100000000000000000000000000000000000000000000000000000000028152600401808373ffffffffffffffffffffffffffffffffffffffff1673ffffffffffffffffffffffffffffffffffffffff16815260200182815260200192505050602060405180830381600087803b1515610d4057fe5b6102c65a03f11515610d4e57fe5b50505060405180519050508373ffffffffffffffffffffffffffffffffffffffff163373ffffffffffffffffffffffffffffffffffffffff167f623b3804fa71d67900d064613da8f94b9617215ee90799290593e1745087ad188484604051808381526020018281526020019250505060405180910390a3610dce610e30565b8092505b5050919050565b6000610df082600654610e1090919063ffffffff16565b90506004548111151515610e045760006000fd5b806006819055505b5050565b600060008284019050838110151515610e2557fe5b8091505b5092915050565b600160009054906101000a900473ffffffffffffffffffffffffffffffffffffffff1673ffffffffffffffffffffffffffffffffffffffff166108fc349081150290604051809050600060405180830381858888f193505050501515610e9257fe5b5b5600a165627a7a72305820c1be00a585a65bc5585c9b86fe368ce5ab196206bbdc2ba27bd46176229a18b20029",
  "source": "pragma solidity ^0.4.11;\n\nimport \"zeppelin-solidity/contracts/ownership/Ownable.sol\";\nimport \"./ContinuousSale.sol\";\nimport \"./VGRToken.sol\";\n\ncontract VGRContinuousSale is ContinuousSale, Ownable {\n    uint256 public constant INFLATION = 8;\n\n    bool public started = false;\n\n    event RateChange(uint256 amount);\n\n    event WalletChange(address wallet);\n\n    function VGRContinuousSale(\n        uint256 _rate,\n        address _wallet,\n        MintableToken _token\n    ) ContinuousSale(_rate, _wallet, _token) {}\n\n    modifier whenStarted() {\n        require(started);\n        _;\n    }\n\n    function start() onlyOwner {\n        require(!started);\n\n        // initialize issuance\n        uint256 finalSupply = token.totalSupply();\n        uint256 annualIssuance = finalSupply.mul(INFLATION).div(100);\n        issuance = annualIssuance.mul(BUCKET_SIZE).div(1 years);\n\n        started = true;\n    }\n\n    function buyTokens(address beneficiary) public payable whenStarted {\n        super.buyTokens(beneficiary);\n    }\n\n    function setWallet(address _wallet) onlyOwner {\n        require(_wallet != 0x0);\n        wallet = _wallet;\n        WalletChange(_wallet);\n    }\n\n    function setRate(uint256 _rate) onlyOwner {\n        rate = _rate;\n        RateChange(_rate);\n    }\n\n    function unpauseToken() onlyOwner {\n        VGRToken(token).unpause();\n    }\n\n    function pauseToken() onlyOwner {\n        VGRToken(token).pause();\n    }\n}\n",
  "sourcePath": "/Users/ac12644/Desktop/vgr/contracts/VGRContinuousSale.sol",
  "compiler": {
    "name": "solc",
    "version": "0.4.11+commit.68ef5810.Emscripten.clang"
  },
  "schemaVersion": "3.4.8",
  "updatedAt": "2022-08-28T18:35:01.361Z",
  "devdoc": {
    "methods": {
      "transferOwnership(address)": {
        "details": "Allows the current owner to transfer control of the contract to a newOwner.",
        "params": {
          "newOwner": "The address to transfer ownership to."
        }
      }
    }
  },
  "userdoc": {
    "methods": {}
  }
}